DEBUTD002022108001235REMDP                                                      
140202210656D00000664181EM180619  WBTAL210100295  020221  11020221000000EU      
010202210314D00000692894EM180619  YDH29792910299  020221  02020221000000EU      
010202210639D00000719349EM180619  WBTAL210100299  020221  02020221000000EU      
060202210639D00000719998EM180619  WBTAL210100299  020221  02020221000000EU      
050202210639D00000708246EM180619  WBTAL210100299  020221  02020221000000EU      
150202210639D00000698262EM180619  WBTAL210100299  020221  02020221000000EU      
140202210659D00000678562EM180619  YDH403-3240295  020221  11020221000000EU      
130202210656D00000713964EM180619  WBTAL210100299  020221  04020221000000EU      
030202210656D00000726143EM180619  WBTAL210100299  020221  04020221000000EU      
210202210235D00000719723EM180619  WBTAL210100290  020221  21020221000000EU      
210202210235D00000727143EM180619  WBTAL210100290  020221  21020221000000EU      
210202210235D00000722032EM180619  WBTAL210100290  020221  21020221000000EU      
210202210241D00000698526EM180619  WBTAL210100290  020221  21020221000000EU      
210202210249D00000701385EM180619  WBTAL210100290  020221  21020221000000EU      
210202210310D00000705099EM180619  WBTAL210100290  020221  21020221000000EU      
210202210311D00000712237EM180619  WBTAL210100290  020221  21020221000000EU      
210202210324D00000715703EM180619  WBTAL210100290  020221  21020221000000EU      
210202210324D00000727267EM180619  WBTAL210100290  020221  21020221000000EU      
210202210325D00000725426EM180619  WBTAL210100290  020221  21020221000000EU      
210202210325D00000716869EM180619  WBTAL210100290  020221  21020221000000EU      
210202210325D00000719485EM180619  WBTAL210100290  020221  21020221000000EU      
210202210325D00000720841EM180619  WBTAL210100290  020221  21020221000000EU      
210202210442D00000722471EM180619  WBTAL210100290  020221  21020221000000EU      
210202210441D00000691584EM180619  YDHXMREY200290  020221  21020221000000EU      
210202210442D00000712515EM180619  WBTAL210100290  020221  21020221000000EU      
080202210658D00000712310EM180619  WBTAL210100299  020221  04020221000000EU      
200202210701D00000680099EM180619  WBTAL210100299  020221  04020221000000EU      
170202210701D00000709177EM180619  WBTAL210100299  020221  04020221000000EU      
150202210701D00000717606EM180619  WBTAL210100299  020221  04020221000000EU      
010202210701D00000726846EM180619  WBTAL210100299  020221  04020221000000EU      
050202210703D00000708181EM180619  WBTAL210100299  020221  04020221000000EU      
170202210658D00000722914EM180619  WBTAL210100293  020221  17020221000000EU      
080202210657D00000644599EM180619  WBTAL201200293  020221  08020221000000EU      
150202210652D00000673347EM180619  YDHFP622RG0293  020221  15020221000000EU      
170202210658D00000676997EM180619  YDH041859P0293  020221  17020221000000EU      
170202210658D00000683335EM180619  YDH405-8250293  020221  17020221000000EU      
170202210658D00000686512EM180619  YDHSO210110293  020221  17020221000000EU      
050202210656D00000699881EM180619  WBTAL210100293  020221  05020221000000EU      
080202210652D00000701891EM180619  WBTAL210100293  020221  08020221000000EU      
180202210656D00000703682EM180619  WBTAL210100292  020221  18020221000000EU      
170202210658D00000709236EM180619  WBTAL210100293  020221  17020221000000EU      
080202210655D00000711820EM180619  WBTAL210100293  020221  08020221000000EU      
160202210654D00000720971EM180619  WBTAL210100293  020221  16020221000000EU      
130202210702D00000663091EM180619  YDHFP61PJ30294  020221  39020221000000EU      
120202210655D00000663300EM180619  YDHFP61PB20292  020221  12020221000000EU      
040202210702D00000585637EM180619  YDHFP5YND50294  020221  39020221000000EU      
040202210702D00000629906EM180619  WBTAL201200294  020221  39020221000000EU      
040202210702D00000641499EM180619  WBTAL201200294  020221  39020221000000EU      
040202210651D00000644589EM180619  WBTAL201200292  020221  04020221000000EU      
080202210657D00000644599EM180619  WBTAL201200292  020221  08020221000000EU      
040202210702D00000650416EM180619  YDH86764620294  020221  39020221000000EU      
130202210702D00000651467EM180619  YDHXMLUBH00294  020221  39020221000000EU      
170202210654D00000654021EM180619  YDHFP617NX0292  020221  17020221000000EU      
150202210656D00000655752EM180619  YDHFP61EEJ0292  020221  15020221000000EU      
040202210702D00000655753EM180619  YDHFP61DZE0294  020221  39020221000000EU      
130202210702D00000664129EM180619  YDH94978990294  020221  39020221000000EU      
160202210658D00000656427EM180619  YDH87117890292  020221  16020221000000EU      
130202210700D00000656467EM180619  YDHFP61GDY0292  020221  13020221000000EU      
150202210653D00000664553EM180619  WBTAL210100293  020221  15020221000000EU      
170202210653D00000659003EM180619  YDH95319940292  020221  17020221000000EU      
160202210655D00000661701EM180619  YDHFP61OMY0292  020221  16020221000000EU      
170202210700D00000662800EM180619  YDHFP61Q7M0292  020221  17020221000000EU      
160202210657D00000662853EM180619  YDHFP61OCZ0293  020221  16020221000000EU      
160202210658D00000662854EM180619  YDHFP61OCQ0292  020221  16020221000000EU      
040202210702D00000663032EM180619  YDH407-2700294  020221  39020221000000EU      
030202210652D00000665600EM180619  YDHFP61RVJ0292  020221  03020221000000EU      
040202210657D00000665605EM180619  YDHFP61RVX0292  020221  04020221000000EU      
200202210703D00000665628EM180619  YDHFP61RWA0294  020221  39020221000000EU      
040202210702D00000665629EM180619  YDHFP61RWA0294  020221  39020221000000EU      
170202210659D00000665656EM180619  YDH041859P0292  020221  17020221000000EU      
040202210702D00000665709EM180619  YDHB2C20210294  020221  39020221000000EU      
160202210654D00000677552EM180619  YDHFP629KR0292  020221  16020221000000EU      
040202210653D00000666073EM180619  YDHFP61T0V0292  020221  04020221000000EU      
040202210702D00000666420EM180619  YDHFP61T7J0294  020221  39020221000000EU      
140202210656D00000666997EM180619  YDHXML2HB00292  020221  14020221000000EU      
130202210702D00000677906EM180619  WBTAL210100294  020221  39020221000000EU      
130202210702D00000667331EM180619  YDHFP61V7D0294  020221  39020221000000EU      
130202210702D00000667404EM180619  YDHFP61UK60294  020221  39020221000000EU      
120202210655D00000667442EM180619  YDHFP61VCQ0292  020221  12020221000000EU      
130202210702D00000667457EM180619  YDH40483650294  020221  39020221000000EU      
180202210652D00000667509EM180619  YDHFP61VSS0292  020221  18020221000000EU      
180202210657D00000667544EM180619  YDHFP61V890292  020221  18020221000000EU      
040202210702D00000667694EM180619  YDHAMTERRY0294  020221  39020221000000EU      
040202210702D00000678116EM180619  YDHB2C20210294  020221  39020221000000EU      
150202210700D00000668047EM180619  YDH27266390292  020221  15020221000000EU      
040202210702D00000668126EM180619  YDH40562140294  020221  39020221000000EU      
040202210702D00000678196EM180619  WBTAL210100294  020221  39020221000000EU      
160202210657D00000669721EM180619  YDH403-1790292  020221  16020221000000EU      
160202210651D00000670329EM180619  YDHFP61XT10293  020221  16020221000000EU      
160202210654D00000670399EM180619  YDHFP61XLZ0292  020221  16020221000000EU      
170202210651D00000670718EM180619  YDHFP61YUI0292  020221  17020221000000EU      
160202210657D00000671167EM180619  YDHB2C20210292  020221  16020221000000EU      
160202210658D00000671569EM180619  WBTAL210100292  020221  16020221000000EU      
120202210657D00000671845EM180619  YDHFP620A80292  020221  12020221000000EU      
040202210702D00000678378EM180619  YDHXMDFD140294  020221  39020221000000EU      
130202210658D00000672448EM180619  YDHLH408040292  020221  13020221000000EU      
150202210651D00000673347EM180619  YDHFP622RG0292  020221  15020221000000EU      
160202210651D00000673713EM180619  YDHFP623J30293  020221  16020221000000EU      
170202210657D00000674783EM180619  WBTAL210100292  020221  17020221000000EU      
160202210700D00000675161EM180619  YDH87741940292  020221  16020221000000EU      
150202210653D00000675180EM180619  YDHART25100293  020221  15020221000000EU      
170202210654D00000675410EM180619  YDHFP624W60292  020221  17020221000000EU      
170202210653D00000675437EM180619  YDHFP624G40292  020221  17020221000000EU      
150202210653D00000676381EM180619  YDH405-7730293  020221  15020221000000EU      
160202210659D00000676561EM180619  YDHP626SVK0292  020221  16020221000000EU      
040202210653D00000676580EM180619  YDH87792280292  020221  04020221000000EU      
200202210703D00000676899EM180619  YDH40461380294  020221  39020221000000EU      
150202210656D00000676986EM180619  YDH041859P0293  020221  15020221000000EU      
170202210656D00000676997EM180619  YDH041859P0292  020221  17020221000000EU      
040202210651D00000677245EM180619  YDHFP6295L0292  020221  04020221000000EU      
160202210700D00000677246EM180619  YDHFP629LN0292  020221  16020221000000EU      
120202210655D00000677322EM180619  YDHFP628PJ0292  020221  12020221000000EU      
210202210702D00000677465EM180619  YDHC77_G210294  020221  39020221000000EU      
040202210702D00000677482EM180619  YDH403-3240294  020221  39020221000000EU      
040202210702D00000678716EM180619  YDH404-3450294  020221  39020221000000EU      
130202210702D00000678781EM180619  YDH27303080294  020221  39020221000000EU      
130202210702D00000679271EM180619  YDH407-9830294  020221  39020221000000EU      
160202210652D00000679457EM180619  YDH002088P0292  020221  16020221000000EU      
040202210702D00000679494EM180619  YDH5FF98B90294  020221  39020221000000EU      
150202210656D00000680013EM180619  YDH96181580292  020221  15020221000000EU      
160202210659D00000681757EM180619  YDH041859P0292  020221  16020221000000EU      
130202210702D00000680645EM180619  YDHC77_2100294  020221  39020221000000EU      
040202210702D00000680672EM180619  YDHC77_F210294  020221  39020221000000EU      
130202210702D00000680732EM180619  YDHSMC1DBE0294  020221  39020221000000EU      
040202210702D00000680747EM180619  YDHSM0B2E00294  020221  39020221000000EU      
130202210702D00000680825EM180619  YDH27330240294  020221  39020221000000EU      
130202210702D00000680871EM180619  YDHC77_G210294  020221  39020221000000EU      
160202210652D00000682743EM180619  YDHXMKU5400292  020221  16020221000000EU      
160202210653D00000680958EM180619  YDH035109P0292  020221  16020221000000EU      
120202210655D00000681066EM180619  YDHFP62CX70292  020221  12020221000000EU      
040202210702D00000681069EM180619  WBTAL210100294  020221  39020221000000EU      
150202210655D00000681297EM180619  YDHFP62CTM0292  020221  15020221000000EU      
170202210656D00000682748EM180619  YDHXMKU5400292  020221  17020221000000EU      
170202210652D00000682912EM180619  YDH12510490292  020221  17020221000000EU      
170202210652D00000683335EM180619  YDH405-8250292  020221  17020221000000EU      
180202210651D00000683509EM180619  YDH402-7440292  020221  18020221000000EU      
170202210652D00000683648EM180619  YDH408-5490292  020221  17020221000000EU      
180202210657D00000684015EM180619  YDHFP62F2C0292  020221  18020221000000EU      
120202210656D00000684028EM180619  YDHC77_G210292  020221  12020221000000EU      
170202210654D00000684899EM180619  YDHAMZXP210292  020221  17020221000000EU      
040202210659D00000685252EM180619  YDH041859P0292  020221  04020221000000EU      
130202210657D00000685315EM180619  YDH041859P0292  020221  13020221000000EU      
150202210656D00000685324EM180619  YDH40204990293  020221  15020221000000EU      
040202210651D00000685325EM180619  YDH40860370292  020221  04020221000000EU      
130202210653D00000685561EM180619  YDH408-1510292  020221  13020221000000EU      
170202210651D00000686512EM180619  YDHSO210110292  020221  17020221000000EU      
160202210654D00000686711EM180619  YDH96416480292  020221  16020221000000EU      
160202210657D00000687258EM180619  YDH402-9830292  020221  16020221000000EU      
040202210702D00000687273EM180619  WBTAL210100294  020221  39020221000000EU      
200202210703D00000687574EM180619  YDHJBFST910294  020221  39020221000000EU      
210202210702D00000687833EM180619  YDH40566570294  020221  39020221000000EU      
170202210653D00000687924EM180619  YDHAM210110292  020221  17020221000000EU      
110202210658D00000688532EM180619  WBTAL210100292  020221  11020221000000EU      
160202210657D00000688544EM180619  YDH402-6910292  020221  16020221000000EU      
040202210651D00000688772EM180619  YDHXM8NRH10292  020221  04020221000000EU      
150202210659D00000689555EM180619  YDHP62LF8V0292  020221  15020221000000EU      
150202210653D00000689617EM180619  WBTAL210100293  020221  15020221000000EU      
110202210703D00000689940EM180619  WBTAL210100294  020221  39020221000000EU      
160202210659D00000690303EM180619  YDH035109P0293  020221  16020221000000EU      
160202210657D00000691125EM180619  YDHXMDK2B00293  020221  16020221000000EU      
180202210651D00000691397EM180619  YDH40341300292  020221  18020221000000EU      
160202210654D00000691441EM180619  YDH041859P0292  020221  16020221000000EU      
160202210653D00000691444EM180619  YDH041859P0292  020221  16020221000000EU      
160202210651D00000692291EM180619  WBTAL210100293  020221  16020221000000EU      
160202210655D00000692715EM180619  YDH035109P0292  020221  16020221000000EU      
140202210652D00000693055EM180619  WBTAL210100292  020221  14020221000000EU      
160202210652D00000693398EM180619  YDHFP62Q9B0292  020221  16020221000000EU      
180202210700D00000693581EM180619  YDHA0005120292  020221  18020221000000EU      
100202210657D00000694139EM180619  WBTAL210100293  020221  10020221000000EU      
180202210656D00000694497EM180619  YDHEO4G2I 0292  020221  18020221000000EU      
060202210703D00000694742EM180619  YDH27199030294  020221  39020221000000EU      
170202210655D00000695018EM180619  YDHC77_G210292  020221  17020221000000EU      
160202210652D00000695022EM180619  YDHXMK2BL00292  020221  16020221000000EU      
100202210657D00000695204EM180619  WBTAL210100293  020221  10020221000000EU      
140202210654D00000695206EM180619  WBTAL210100293  020221  14020221000000EU      
150202210655D00000695459EM180619  YDHA0005120292  020221  15020221000000EU      
040202210651D00000695526EM180619  YDHC77_2100292  020221  04020221000000EU      
170202210700D00000695551EM180619  YDH40244660292  020221  17020221000000EU      
040202210702D00000695767EM180619  YDHC77_G210294  020221  39020221000000EU      
040202210702D00000695802EM180619  YDHC77_2100294  020221  39020221000000EU      
040202210702D00000695834EM180619  YDHC77_F210294  020221  39020221000000EU      
040202210702D00000695999EM180619  YDHC77_2100294  020221  39020221000000EU      
040202210702D00000696006EM180619  YDHC77_2100294  020221  39020221000000EU      
130202210702D00000696032EM180619  YDHC77_H210294  020221  39020221000000EU      
160202210652D00000696046EM180619  YDHC77_G210292  020221  16020221000000EU      
040202210702D00000696248EM180619  YDHA0000920294  020221  39020221000000EU      
150202210652D00000696253EM180619  YDHC77_F210293  020221  15020221000000EU      
040202210702D00000696266EM180619  YDHXMJ1HH00294  020221  39020221000000EU      
150202210653D00000696361EM180619  YDH40209600293  020221  15020221000000EU      
040202210702D00000696547EM180619  YDHXMK2BL00294  020221  39020221000000EU      
130202210702D00000696662EM180619  YDHART26050294  020221  39020221000000EU      
140202210700D00000697025EM180619  YDHMGP21010292  020221  14020221000000EU      
130202210702D00000697075EM180619  YDHC77_F210294  020221  39020221000000EU      
040202210702D00000697190EM180619  YDHC77_2100294  020221  39020221000000EU      
040202210702D00000697473EM180619  YDHC77_H210294  020221  39020221000000EU      
100202210653D00000697592EM180619  WBTAL210100293  020221  10020221000000EU      
040202210702D00000697594EM180619  WBTAL210100294  020221  39020221000000EU      
130202210702D00000697598EM180619  WBTAL210100294  020221  39020221000000EU      
200202210703D00000697679EM180619  YDHC77_G210294  020221  39020221000000EU      
180202210703D00000697764EM180619  WBTAL210100294  020221  39020221000000EU      
160202210651D00000698020EM180619  YDHC77_F210292  020221  16020221000000EU      
180202210654D00000698162EM180619  WBTAL210100292  020221  18020221000000EU      
080202210653D00000698380EM180619  WBTAL210100292  020221  08020221000000EU      
180202210700D00000701445EM180619  YDHC77_2100292  020221  18020221000000EU      
160202210659D00000699398EM180619  WBTAL210100292  020221  16020221000000EU      
160202210655D00000699612EM180619  YDHXM8NRH10293  020221  16020221000000EU      
160202210656D00000699635EM180619  YDHXM8NRH10292  020221  16020221000000EU      
160202210659D00000699638EM180619  WBTAL210100292  020221  16020221000000EU      
050202210656D00000699881EM180619  WBTAL210100292  020221  05020221000000EU      
110202210700D00000700296EM180619  WBTAL210100292  020221  11020221000000EU      
160202210657D00000700547EM180619  YDH96454550292  020221  16020221000000EU      
200202210703D00000700567EM180619  YDH31404050294  020221  39020221000000EU      
110202210703D00000700959EM180619  WBTAL210100294  020221  39020221000000EU      
160202210653D00000701252EM180619  WBTAL210100292  020221  16020221000000EU      
080202210652D00000701891EM180619  WBTAL210100292  020221  08020221000000EU      
040202210702D00000701979EM180619  YDHA0000920294  020221  39020221000000EU      
130202210702D00000702270EM180619  YDHC77_F210294  020221  39020221000000EU      
130202210652D00000702309EM180619  WBTAL210100292  020221  13020221000000EU      
170202210651D00000702441EM180619  WBTAL210100292  020221  17020221000000EU      
040202210702D00000702768EM180619  WBTAL210100294  020221  39020221000000EU      
040202210702D00000703022EM180619  YDHC77_F210294  020221  39020221000000EU      
170202210657D00000703125EM180619  WBTAL210100292  020221  17020221000000EU      
110202210700D00000703146EM180619  WBTAL210100292  020221  11020221000000EU      
130202210654D00000703542EM180619  WBTAL210100292  020221  13020221000000EU      
180202210651D00000703682EM180619  WBTAL210100292  020221  18020221000000EU      
200202210657D00000703733EM180619  WBTAL210100292  020221  20020221000000EU      
040202210702D00000703785EM180619  YDHXM8NRH10294  020221  39020221000000EU      
130202210702D00000703794EM180619  WBTAL210100294  020221  39020221000000EU      
040202210702D00000703803EM180619  YDHXM8NRH10294  020221  39020221000000EU      
130202210702D00000704128EM180619  YDHART26250294  020221  39020221000000EU      
130202210702D00000704352EM180619  YDH405-4230294  020221  39020221000000EU      
130202210702D00000704529EM180619  YDHJBFST910294  020221  39020221000000EU      
130202210702D00000704622EM180619  WBTAL210100294  020221  39020221000000EU      
130202210702D00000704758EM180619  WBTAL210100294  020221  39020221000000EU      
160202210652D00000705287EM180619  WBTAL210100292  020221  16020221000000EU      
130202210702D00000705289EM180619  WBTAL210100294  020221  39020221000000EU      
130202210702D00000705293EM180619  WBTAL210100294  020221  39020221000000EU      
040202210702D00000705297EM180619  WBTAL210100294  020221  39020221000000EU      
130202210702D00000705307EM180619  WBTAL210100294  020221  39020221000000EU      
130202210702D00000705316EM180619  WBTAL210100294  020221  39020221000000EU      
130202210702D00000705326EM180619  WBTAL210100294  020221  39020221000000EU      
130202210702D00000705364EM180619  WBTAL210100294  020221  39020221000000EU      
040202210703D00000705457EM180619  WBTAL210100294  020221  39020221000000EU      
160202210653D00000705572EM180619  WBTAL210100292  020221  16020221000000EU      
160202210655D00000705671EM180619  WBTAL210100293  020221  16020221000000EU      
130202210702D00000705742EM180619  WBTAL210100294  020221  39020221000000EU      
040202210702D00000705938EM180619  WBTAL210100294  020221  39020221000000EU      
040202210702D00000706111EM180619  WBTAL210100294  020221  39020221000000EU      
130202210702D00000706162EM180619  WBTAL210100294  020221  39020221000000EU      
040202210702D00000706531EM180619  WBTAL210100294  020221  39020221000000EU      
130202210702D00000706552EM180619  WBTAL210100294  020221  39020221000000EU      
170202210655D00000706654EM180619  WBTAL210100292  020221  17020221000000EU      
130202210702D00000706688EM180619  WBTAL210100294  020221  39020221000000EU      
160202210653D00000706767EM180619  WBTAL210100292  020221  16020221000000EU      
040202210702D00000706777EM180619  WBTAL210100294  020221  39020221000000EU      
040202210702D00000706783EM180619  WBTAL210100294  020221  39020221000000EU      
040202210702D00000706786EM180619  WBTAL210100294  020221  39020221000000EU      
040202210702D00000706805EM180619  WBTAL210100294  020221  39020221000000EU      
040202210702D00000706866EM180619  WBTAL210100294  020221  39020221000000EU      
040202210702D00000706876EM180619  WBTAL210100294  020221  39020221000000EU      
170202210654D00000706895EM180619  WBTAL210100292  020221  17020221000000EU      
040202210702D00000706912EM180619  WBTAL210100294  020221  39020221000000EU      
160202210653D00000706952EM180619  WBTAL210100292  020221  16020221000000EU      
140202210654D00000707141EM180619  WBTAL210100293  020221  14020221000000EU      
130202210702D00000707187EM180619  WBTAL210100294  020221  39020221000000EU      
130202210702D00000707203EM180619  WBTAL210100294  020221  39020221000000EU      
170202210656D00000707352EM180619  WBTAL210100292  020221  17020221000000EU      
040202210702D00000707372EM180619  WBTAL210100294  020221  39020221000000EU      
040202210702D00000707430EM180619  WBTAL210100294  020221  39020221000000EU      
040202210651D00000707445EM180619  WBTAL210100292  020221  04020221000000EU      
170202210654D00000707482EM180619  WBTAL210100292  020221  17020221000000EU      
040202210702D00000707530EM180619  WBTAL210100294  020221  39020221000000EU      
080202210700D00000707531EM180619  WBTAL210100292  020221  08020221000000EU      
040202210702D00000707551EM180619  WBTAL210100294  020221  39020221000000EU      
150202210653D00000707564EM180619  WBTAL210100292  020221  15020221000000EU      
130202210702D00000707573EM180619  WBTAL210100294  020221  39020221000000EU      
180202210654D00000707579EM180619  WBTAL210100292  020221  18020221000000EU      
040202210702D00000707605EM180619  WBTAL210100294  020221  39020221000000EU      
200202210654D00000707642EM180619  WBTAL210100292  020221  20020221000000EU      
130202210702D00000707643EM180619  WBTAL210100294  020221  39020221000000EU      
040202210703D00000707759EM180619  WBTAL210100294  020221  39020221000000EU      
040202210702D00000707918EM180619  WBTAL210100294  020221  39020221000000EU      
160202210657D00000708094EM180619  WBTAL210100293  020221  16020221000000EU      
040202210702D00000708125EM180619  WBTAL210100294  020221  39020221000000EU      
040202210702D00000708130EM180619  WBTAL210100294  020221  39020221000000EU      
040202210702D00000708164EM180619  WBTAL210100294  020221  39020221000000EU      
170202210656D00000708241EM180619  WBTAL210100292  020221  17020221000000EU      
130202210702D00000708727EM180619  WBTAL210100294  020221  39020221000000EU      
040202210702D00000708327EM180619  WBTAL210100294  020221  39020221000000EU      
130202210702D00000708411EM180619  YDH43681  0294  020221  39020221000000EU      
130202210702D00000708433EM180619  WBTAL210100294  020221  39020221000000EU      
120202210653D00000708535EM180619  WBTAL210100292  020221  12020221000000EU      
130202210702D00000708539EM180619  WBTAL210100294  020221  39020221000000EU      
160202210656D00000708604EM180619  WBTAL210100292  020221  16020221000000EU      
170202210658D00000708716EM180619  WBTAL210100292  020221  17020221000000EU      
040202210702D00000708817EM180619  WBTAL210100294  020221  39020221000000EU      
040202210702D00000708860EM180619  WBTAL210100294  020221  39020221000000EU      
170202210700D00000708866EM180619  WBTAL210100293  020221  17020221000000EU      
130202210702D00000708869EM180619  WBTAL210100294  020221  39020221000000EU      
040202210702D00000708921EM180619  WBTAL210100294  020221  39020221000000EU      
090202210658D00000708965EM180619  WBTAL210100293  020221  09020221000000EU      
130202210702D00000709124EM180619  WBTAL210100294  020221  39020221000000EU      
160202210659D00000709184EM180619  WBTAL210100293  020221  16020221000000EU      
170202210652D00000709236EM180619  WBTAL210100292  020221  17020221000000EU      
100202210657D00000709261EM180619  WBTAL210100293  020221  10020221000000EU      
170202210658D00000709457EM180619  WBTAL210100292  020221  17020221000000EU      
170202210653D00000709497EM180619  WBTAL210100292  020221  17020221000000EU      
160202210655D00000709955EM180619  WBTAL210100292  020221  16020221000000EU      
100202210657D00000710018EM180619  WBTAL210100293  020221  10020221000000EU      
170202210654D00000710171EM180619  WBTAL210100292  020221  17020221000000EU      
130202210656D00000710485EM180619  WBTAL210100292  020221  13020221000000EU      
170202210652D00000710507EM180619  WBTAL210100292  020221  17020221000000EU      
020202210700D00000710533EM180619  WBTAL210100292  020221  02020221000000EU      
170202210700D00000710626EM180619  WBTAL210100293  020221  17020221000000EU      
040202210700D00000710724EM180619  WBTAL210100292  020221  04020221000000EU      
160202210657D00000710978EM180619  WBTAL210100293  020221  16020221000000EU      
160202210659D00000711138EM180619  WBTAL210100292  020221  16020221000000EU      
180202210700D00000711171EM180619  WBTAL210100292  020221  18020221000000EU      
040202210657D00000711330EM180619  WBTAL210100292  020221  04020221000000EU      
180202210658D00000711391EM180619  WBTAL210100292  020221  18020221000000EU      
080202210652D00000711820EM180619  WBTAL210100292  020221  08020221000000EU      
150202210701D00000712271EM180619  WBTAL210100292  020221  15020221000000EU      
160202210655D00000712551EM180619  WBTAL210100293  020221  16020221000000EU      
100202210659D00000712716EM180619  WBTAL210100292  020221  10020221000000EU      
130202210702D00000712772EM180619  WBTAL210100294  020221  39020221000000EU      
040202210702D00000713041EM180619  WBTAL210100294  020221  39020221000000EU      
040202210702D00000713203EM180619  WBTAL210100294  020221  39020221000000EU      
120202210651D00000713252EM180619  WBTAL210100292  020221  12020221000000EU      
040202210702D00000713318EM180619  WBTAL210100294  020221  39020221000000EU      
130202210702D00000713335EM180619  WBTAL210100294  020221  39020221000000EU      
040202210702D00000713380EM180619  WBTAL210100294  020221  39020221000000EU      
040202210702D00000713492EM180619  WBTAL210100294  020221  39020221000000EU      
130202210702D00000713431EM180619  WBTAL210100294  020221  39020221000000EU      
160202210658D00000713454EM180619  WBTAL210100292  020221  16020221000000EU      
130202210702D00000713463EM180619  WBTAL210100294  020221  39020221000000EU      
180202210653D00000713484EM180619  WBTAL210100292  020221  18020221000000EU      
040202210702D00000713656EM180619  WBTAL210100294  020221  39020221000000EU      
040202210702D00000713765EM180619  WBTAL210100294  020221  39020221000000EU      
130202210702D00000713836EM180619  WBTAL210100294  020221  39020221000000EU      
110202210657D00000713884EM180619  WBTAL210100292  020221  11020221000000EU      
170202210658D00000713926EM180619  WBTAL210100292  020221  17020221000000EU      
040202210702D00000713990EM180619  WBTAL210100294  020221  39020221000000EU      
150202210653D00000714048EM180619  WBTAL210100293  020221  15020221000000EU      
130202210702D00000714152EM180619  WBTAL210100294  020221  39020221000000EU      
130202210702D00000714243EM180619  WBTAL210100294  020221  39020221000000EU      
040202210702D00000714450EM180619  WBTAL210100294  020221  39020221000000EU      
040202210702D00000714477EM180619  WBTAL210100294  020221  39020221000000EU      
030202210700D00000716574EM180619  WBTAL210100292  020221  03020221000000EU      
130202210702D00000714484EM180619  WBTAL210100294  020221  39020221000000EU      
040202210702D00000714496EM180619  WBTAL210100294  020221  39020221000000EU      
040202210702D00000714597EM180619  WBTAL210100294  020221  39020221000000EU      
040202210702D00000714642EM180619  WBTAL210100294  020221  39020221000000EU      
130202210702D00000714824EM180619  WBTAL210100294  020221  39020221000000EU      
160202210655D00000714845EM180619  WBTAL210100293  020221  16020221000000EU      
040202210702D00000714856EM180619  WBTAL210100294  020221  39020221000000EU      
130202210702D00000714879EM180619  WBTAL210100294  020221  39020221000000EU      
170202210654D00000715084EM180619  WBTAL210100292  020221  17020221000000EU      
040202210702D00000715113EM180619  WBTAL210100294  020221  39020221000000EU      
160202210655D00000716858EM180619  WBTAL210100293  020221  16020221000000EU      
040202210702D00000715280EM180619  WBTAL210100294  020221  39020221000000EU      
040202210702D00000715594EM180619  WBTAL210100294  020221  39020221000000EU      
030202210657D00000715628EM180619  WBTAL210100292  020221  03020221000000EU      
040202210702D00000715680EM180619  WBTAL210100294  020221  39020221000000EU      
170202210652D00000715751EM180619  WBTAL210100292  020221  17020221000000EU      
160202210654D00000715854EM180619  WBTAL210100292  020221  16020221000000EU      
130202210702D00000715861EM180619  WBTAL210100294  020221  39020221000000EU      
130202210653D00000715921EM180619  WBTAL210100292  020221  13020221000000EU      
160202210655D00000716862EM180619  WBTAL210100293  020221  16020221000000EU      
130202210702D00000716104EM180619  WBTAL210100294  020221  39020221000000EU      
040202210702D00000716175EM180619  WBTAL210100294  020221  39020221000000EU      
140202210655D00000717301EM180619  WBTAL210100292  020221  14020221000000EU      
100202210657D00000717518EM180619  WBTAL210100292  020221  10020221000000EU      
170202210651D00000720727EM180619  WBTAL210100292  020221  17020221000000EU      
160202210655D00000717948EM180619  WBTAL210100293  020221  16020221000000EU      
130202210700D00000718072EM180619  WBTAL210100292  020221  13020221000000EU      
100202210657D00000718149EM180619  WBTAL210100293  020221  10020221000000EU      
160202210653D00000720730EM180619  WBTAL210100292  020221  16020221000000EU      
110202210701D00000718468EM180619  WBTAL210100292  020221  11020221000000EU      
120202210651D00000718690EM180619  WBTAL210100292  020221  12020221000000EU      
170202210700D00000718830EM180619  WBTAL210100293  020221  17020221000000EU      
110202210700D00000718901EM180619  WBTAL210100292  020221  11020221000000EU      
160202210656D00000720756EM180619  WBTAL210100292  020221  16020221000000EU      
170202210658D00000719201EM180619  WBTAL210100292  020221  17020221000000EU      
160202210700D00000719583EM180619  WBTAL210100292  020221  16020221000000EU      
040202210659D00000719615EM180619  WBTAL210100292  020221  04020221000000EU      
040202210702D00000719753EM180619  WBTAL210100294  020221  39020221000000EU      
130202210702D00000719779EM180619  WBTAL210100294  020221  39020221000000EU      
130202210702D00000719787EM180619  WBTAL210100294  020221  39020221000000EU      
120202210653D00000719806EM180619  WBTAL210100292  020221  12020221000000EU      
130202210702D00000719810EM180619  WBTAL210100294  020221  39020221000000EU      
040202210702D00000719830EM180619  WBTAL210100294  020221  39020221000000EU      
040202210702D00000719835EM180619  WBTAL210100294  020221  39020221000000EU      
040202210702D00000719843EM180619  WBTAL210100294  020221  39020221000000EU      
140202210651D00000719844EM180619  WBTAL210100292  020221  14020221000000EU      
130202210702D00000719850EM180619  WBTAL210100294  020221  39020221000000EU      
100202210653D00000719855EM180619  WBTAL210100293  020221  10020221000000EU      
040202210702D00000719900EM180619  WBTAL210100294  020221  39020221000000EU      
120202210652D00000719927EM180619  WBTAL210100292  020221  12020221000000EU      
170202210658D00000720002EM180619  WBTAL210100292  020221  17020221000000EU      
040202210702D00000720020EM180619  WBTAL210100294  020221  39020221000000EU      
130202210702D00000720045EM180619  WBTAL210100294  020221  39020221000000EU      
020202210658D00000720070EM180619  WBTAL210100292  020221  02020221000000EU      
040202210702D00000720094EM180619  WBTAL210100294  020221  39020221000000EU      
040202210702D00000720096EM180619  WBTAL210100294  020221  39020221000000EU      
160202210657D00000720121EM180619  WBTAL210100292  020221  16020221000000EU      
130202210702D00000720139EM180619  WBTAL210100294  020221  39020221000000EU      
040202210702D00000720156EM180619  WBTAL210100294  020221  39020221000000EU      
030202210658D00000720159EM180619  WBTAL210100292  020221  03020221000000EU      
040202210702D00000720192EM180619  WBTAL210100294  020221  39020221000000EU      
160202210701D00000720266EM180619  WBTAL210100292  020221  16020221000000EU      
130202210702D00000720375EM180619  WBTAL210100294  020221  39020221000000EU      
130202210702D00000720617EM180619  WBTAL210100294  020221  39020221000000EU      
040202210702D00000720693EM180619  WBTAL210100294  020221  39020221000000EU      
160202210653D00000720698EM180619  WBTAL210100292  020221  16020221000000EU      
010202210654D00000720770EM180619  WBTAL210100292  020221  01020221000000EU      
160202210659D00000720774EM180619  WBTAL210100292  020221  16020221000000EU      
040202210702D00000720792EM180619  WBTAL210100294  020221  39020221000000EU      
130202210702D00000720805EM180619  WBTAL210100294  020221  39020221000000EU      
130202210702D00000720813EM180619  WBTAL210100294  020221  39020221000000EU      
030202210655D00000720833EM180619  WBTAL210100292  020221  03020221000000EU      
170202210653D00000720837EM180619  WBTAL210100292  020221  17020221000000EU      
130202210702D00000720840EM180619  WBTAL210100294  020221  39020221000000EU      
130202210702D00000720849EM180619  WBTAL210100294  020221  39020221000000EU      
170202210656D00000720866EM180619  WBTAL210100292  020221  17020221000000EU      
130202210702D00000720871EM180619  WBTAL210100294  020221  39020221000000EU      
180202210652D00000720875EM180619  WBTAL210100292  020221  18020221000000EU      
040202210702D00000720879EM180619  WBTAL210100294  020221  39020221000000EU      
040202210702D00000720912EM180619  WBTAL210100294  020221  39020221000000EU      
130202210702D00000720919EM180619  WBTAL210100294  020221  39020221000000EU      
160202210653D00000720971EM180619  WBTAL210100292  020221  16020221000000EU      
130202210702D00000721003EM180619  WBTAL210100294  020221  39020221000000EU      
040202210702D00000721164EM180619  WBTAL210100294  020221  39020221000000EU      
040202210702D00000721172EM180619  WBTAL210100294  020221  39020221000000EU      
160202210657D00000721234EM180619  WBTAL210100293  020221  16020221000000EU      
120202210652D00000721401EM180619  WBTAL210100292  020221  12020221000000EU      
030202210652D00000721402EM180619  WBTAL210100292  020221  03020221000000EU      
030202210655D00000721420EM180619  WBTAL210100292  020221  03020221000000EU      
130202210654D00000721513EM180619  WBTAL210100292  020221  13020221000000EU      
100202210658D00000721587EM180619  WBTAL210100292  020221  10020221000000EU      
180202210657D00000721697EM180619  WBTAL210100292  020221  18020221000000EU      
160202210657D00000721846EM180619  WBTAL210100292  020221  16020221000000EU      
120202210652D00000721877EM180619  WBTAL210100292  020221  12020221000000EU      
170202210653D00000721934EM180619  WBTAL210100292  020221  17020221000000EU      
170202210700D00000721994EM180619  WBTAL210100293  020221  17020221000000EU      
170202210701D00000722009EM180619  WBTAL210100292  020221  17020221000000EU      
170202210653D00000722041EM180619  WBTAL210100292  020221  17020221000000EU      
170202210654D00000722914EM180619  WBTAL210100292  020221  17020221000000EU      
150202210658D00000723000EM180619  WBTAL210100292  020221  15020221000000EU      
170202210700D00000723706EM180619  WBTAL210100293  020221  17020221000000EU      
150202210656D00000723801EM180619  WBTAL210100293  020221  15020221000000EU      
150202210653D00000723865EM180619  WBTAL210100292  020221  15020221000000EU      
180202210658D00000723895EM180619  WBTAL210100292  020221  18020221000000EU      
160202210652D00000723898EM180619  WBTAL210100292  020221  16020221000000EU      
170202210651D00000723907EM180619  WBTAL210100292  020221  17020221000000EU      
020202210659D00000723911EM180619  WBTAL210100292  020221  02020221000000EU      
100202210657D00000724112EM180619  WBTAL210100292  020221  10020221000000EU      
030202210655D00000724120EM180619  WBTAL210100292  020221  03020221000000EU      
170202210652D00000724333EM180619  WBTAL210100292  020221  17020221000000EU      
100202210653D00000724386EM180619  WBTAL210100293  020221  10020221000000EU      
180202210654D00000724592EM180619  WBTAL210100292  020221  18020221000000EU      
120202210659D00000724800EM180619  WBTAL210100292  020221  12020221000000EU      
120202210653D00000724818EM180619  WBTAL210100292  020221  12020221000000EU      
160202210657D00000724998EM180619  WBTAL210100293  020221  16020221000000EU      
030202210655D00000725152EM180619  WBTAL210100292  020221  03020221000000EU      
170202210656D00000725613EM180619  WBTAL210100292  020221  17020221000000EU      
120202210652D00000726285EM180619  WBTAL210100292  020221  12020221000000EU      
160202210700D00000726533EM180619  WBTAL210100293  020221  16020221000000EU      
020202210656D00000726857EM180619  WBTAL210100292  020221  02020221000000EU      
160202210657D00000727001EM180619  WBTAL210100292  020221  16020221000000EU      
040202210702D00000727222EM180619  WBTAL210100294  020221  39020221000000EU      
040202210702D00000728398EM180619  WBTAL210100294  020221  39020221000000EU      
040202210702D00000727227EM180619  WBTAL210100294  020221  39020221000000EU      
180202210654D00000727254EM180619  WBTAL210100292  020221  18020221000000EU      
040202210702D00000727435EM180619  WBTAL210100294  020221  39020221000000EU      
130202210702D00000727553EM180619  WBTAL210100294  020221  39020221000000EU      
040202210702D00000727605EM180619  WBTAL210100294  020221  39020221000000EU      
040202210702D00000727637EM180619  WBTAL210100294  020221  39020221000000EU      
170202210654D00000727650EM180619  WBTAL210100292  020221  17020221000000EU      
130202210702D00000727864EM180619  WBTAL210100294  020221  39020221000000EU      
170202210700D00000727909EM180619  WBTAL210100292  020221  17020221000000EU      
160202210653D00000727919EM180619  WBTAL210100292  020221  16020221000000EU      
180202210659D00000727920EM180619  WBTAL210100292  020221  18020221000000EU      
040202210702D00000727946EM180619  WBTAL210100294  020221  39020221000000EU      
130202210702D00000727947EM180619  WBTAL210100294  020221  39020221000000EU      
160202210700D00000727990EM180619  WBTAL210100292  020221  16020221000000EU      
120202210653D00000728030EM180619  WBTAL210100292  020221  12020221000000EU      
100202210700D00000728055EM180619  WBTAL210100292  020221  10020221000000EU      
130202210702D00000728108EM180619  WBTAL210100294  020221  39020221000000EU      
040202210702D00000728167EM180619  WBTAL210100294  020221  39020221000000EU      
040202210702D00000728202EM180619  WBTAL210100294  020221  39020221000000EU      
170202210655D00000728262EM180619  WBTAL210100292  020221  17020221000000EU      
130202210702D00000728265EM180619  WBTAL210100294  020221  39020221000000EU      
130202210702D00000728286EM180619  WBTAL210100294  020221  39020221000000EU      
130202210702D00000728318EM180619  WBTAL210100294  020221  39020221000000EU      
130202210702D00000728334EM180619  WBTAL210100294  020221  39020221000000EU      
100202210658D00000728362EM180619  WBTAL210100292  020221  10020221000000EU      
040202210702D00000728389EM180619  WBTAL210100294  020221  39020221000000EU      
040202210702D00000728588EM180619  WBTAL210100294  020221  39020221000000EU      
160202210653D00000729213EM180619  WBTAL210100292  020221  16020221000000EU      
130202210702D00000729257EM180619  WBTAL210100294  020221  39020221000000EU      
190202210704D00000670045EM180619  YDH27277640294  020221  39020221000000EU      
040202210708D00000670181EM180619  YDHC77_2100294  020221  39020221000000EU      
130202210704D00000670264EM180619  YDH40521360294  020221  39020221000000EU      
020202210704D00000670316EM180619  YDHC77_F210294  020221  39020221000000EU      
020202210704D00000674997EM180619  YDH407-6080294  020221  39020221000000EU      
020202210704D00000670322EM180619  YDH404-0840294  020221  39020221000000EU      
020202210704D00000670511EM180619  YDHFP61YTM0294  020221  39020221000000EU      
020202210704D00000670697EM180619  YDHFP61YML0294  020221  39020221000000EU      
020202210704D00000671306EM180619  YDHFP61Z8B0294  020221  39020221000000EU      
020202210704D00000671782EM180619  YDHFP6200F0294  020221  39020221000000EU      
020202210704D00000671980EM180619  YDHXMDFD140294  020221  39020221000000EU      
020202210704D00000672075EM180619  YDH404-9690294  020221  39020221000000EU      
130202210705D00000672416EM180619  YDHFP620M20294  020221  39020221000000EU      
020202210704D00000672736EM180619  YDHMGP21010294  020221  39020221000000EU      
130202210705D00000672959EM180619  YDH99264040294  020221  39020221000000EU      
200202210704D00000673031EM180619  YDHFP6228Q0294  020221  39020221000000EU      
020202210704D00000673138EM180619  YDHFP6213O0294  020221  39020221000000EU      
040202210707D00000673161EM180619  YDHFP6227U0294  020221  39020221000000EU      
200202210704D00000673271EM180619  YDHFP621SN0294  020221  39020221000000EU      
030202210705D00000673282EM180619  YDHFP6222H0294  020221  39020221000000EU      
040202210707D00000673355EM180619  YDHC77_2100294  020221  39020221000000EU      
040202210708D00000674079EM180619  YDHFP623JZ0294  020221  39020221000000EU      
040202210708D00000674102EM180619  YDHB2C20210294  020221  39020221000000EU      
020202210705D00000674174EM180619  YDH041859P0294  020221  39020221000000EU      
190202210704D00000674322EM180619  YDH035109P0294  020221  39020221000000EU      
020202210704D00000674509EM180619  YDH041859P0294  020221  39020221000000EU      
040202210707D00000674512EM180619  YDH041859P0294  020221  39020221000000EU      
190202210704D00000674858EM180619  YDHFP6240Y0294  020221  39020221000000EU      
040202210708D00000674994EM180619  YDHFP623XT0294  020221  39020221000000EU      
040202210708D00000675623EM180619  YDHFP625C70294  020221  39020221000000EU      
190202210704D00000675834EM180619  YDH27307290294  020221  39020221000000EU      
020202210704D00000675837EM180619  YDH171-7040294  020221  39020221000000EU      
020202210704D00000675850EM180619  YDHC77_2100294  020221  39020221000000EU      
130202210704D00000675898EM180619  YDHFP626VJ0294  020221  39020221000000EU      
130202210705D00000675938EM180619  YDHFP625T80294  020221  39020221000000EU      
200202210704D00000676119EM180619  YDHLH419830294  020221  39020221000000EU      
020202210704D00000676188EM180619  YDHXMDFD140294  020221  39020221000000EU      
020202210705D00000676189EM180619  YDHXMDFD140294  020221  39020221000000EU      
200202210704D00000676390EM180619  YDH405-5950294  020221  39020221000000EU      
040202210708D00000676581EM180619  YDH87803370294  020221  39020221000000EU      
130202210705D00000676652EM180619  YDHLH413960294  020221  39020221000000EU      
040202210707D00000676818EM180619  YDH408-4090294  020221  39020221000000EU      
040202210708D00000676982EM180619  YDH041859P0294  020221  39020221000000EU      
040202210707D00000676992EM180619  YDH041859P0294  020221  39020221000000EU      
130202210704D00000677010EM180619  YDH171-2220294  020221  39020221000000EU      
130202210705D00000677023EM180619  YDHFP6298A0294  020221  39020221000000EU      
200202210704D00000677168EM180619  YDH035109P0294  020221  39020221000000EU      
200202210704D00000677238EM180619  YDH87874630294  020221  39020221000000EU      
020202210704D00000677352EM180619  YDHC77_2100294  020221  39020221000000EU      
020202210704D00000677398EM180619  YDHC77_H210294  020221  39020221000000EU      
020202210704D00000677436EM180619  YDH171-6710294  020221  39020221000000EU      
060202210708D00000678146EM180619  WBTAL210100294  020221  39020221000000EU      
190202210704D00000678328EM180619  YDHFP62A8U0294  020221  39020221000000EU      
020202210704D00000678330EM180619  YDH96738390294  020221  39020221000000EU      
200202210704D00000678590EM180619  YDH035109P0294  020221  39020221000000EU      
190202210704D00000678670EM180619  YDHFP624BR0294  020221  39020221000000EU      
190202210704D00000678869EM180619  YDH40420600294  020221  39020221000000EU      
020202210704D00000679497EM180619  YDH5FFB06E0294  020221  39020221000000EU      
030202210705D00000679499EM180619  YDH5FFA00C0294  020221  39020221000000EU      
020202210704D00000680163EM180619  YDH96217800294  020221  39020221000000EU      
020202210704D00000681976EM180619  YDH5FFC34D0294  020221  39020221000000EU      
200202210708D00000680780EM180619  YDHFP62D140294  020221  39020221000000EU      
010202210707D00000680814EM180619  WBTAL210100294  020221  39020221000000EU      
040202210708D00000681157EM180619  YDHFP62C130294  020221  39020221000000EU      
020202210704D00000681222EM180619  YDHC77_G210294  020221  39020221000000EU      
040202210707D00000681256EM180619  YDHFP62D1N0294  020221  39020221000000EU      
040202210705D00000681570EM180619  YDH27332550294  020221  39020221000000EU      
020202210704D00000681573EM180619  YDHC77_2100294  020221  39020221000000EU      
020202210705D00000681713EM180619  YDH10741290294  020221  39020221000000EU      
040202210707D00000681729EM180619  YDH27336550294  020221  39020221000000EU      
020202210704D00000681830EM180619  YDH041859P0294  020221  39020221000000EU      
130202210705D00000681847EM180619  YDH041859P0294  020221  39020221000000EU      
130202210705D00000692295EM180619  YDH81243440294  020221  39020221000000EU      
130202210707D00000692404EM180619  WBTAL210100294  020221  39020221000000EU      
130202210705D00000692453EM180619  YDH96731040294  020221  39020221000000EU      
130202210705D00000692640EM180619  YDHXM8NRH10294  020221  39020221000000EU      
130202210707D00000692743EM180619  WBTAL210100294  020221  39020221000000EU      
040202210708D00000692749EM180619  WBTAL210100294  020221  39020221000000EU      
060202210708D00000692758EM180619  WBTAL210100294  020221  39020221000000EU      
020202210704D00000692867EM180619  YDHA0001920294  020221  39020221000000EU      
020202210704D00000692882EM180619  YDH31569330294  020221  39020221000000EU      
040202210707D00000692990EM180619  WBTAL210100294  020221  39020221000000EU      
020202210704D00000693049EM180619  YDHSM90BD60294  020221  39020221000000EU      
020202210704D00000693078EM180619  YDHC77_F210294  020221  39020221000000EU      
040202210707D00000693089EM180619  YDHC77_2100294  020221  39020221000000EU      
040202210708D00000693297EM180619  YDHFP62QH80294  020221  39020221000000EU      
060202210708D00000693332EM180619  WBTAL210100294  020221  39020221000000EU      
040202210707D00000693337EM180619  WBTAL210100294  020221  39020221000000EU      
020202210704D00000693550EM180619  YDH406-8630294  020221  39020221000000EU      
200202210704D00000693631EM180619  YDHFP62QKD0294  020221  39020221000000EU      
130202210705D00000693760EM180619  YDHC77_2100294  020221  39020221000000EU      
200202210704D00000694219EM180619  YDHRY228130294  020221  39020221000000EU      
130202210707D00000694234EM180619  WBTAL210100294  020221  39020221000000EU      
040202210707D00000694274EM180619  YDH40862920294  020221  39020221000000EU      
130202210705D00000694278EM180619  YDH40840450294  020221  39020221000000EU      
020202210704D00000694281EM180619  YDH10012410294  020221  39020221000000EU      
030202210704D00000694288EM180619  WBTAL210100294  020221  39020221000000EU      
190202210704D00000694340EM180619  YDH6001B320294  020221  39020221000000EU      
040202210708D00000694345EM180619  YDH6000C6B0294  020221  39020221000000EU      
020202210704D00000694404EM180619  YDH600085C0294  020221  39020221000000EU      
130202210704D00000694594EM180619  YDHART25950294  020221  39020221000000EU      
040202210707D00000694607EM180619  WBTAL210100294  020221  39020221000000EU      
200202210704D00000694627EM180619  WBTAL210100294  020221  39020221000000EU      
020202210704D00000694748EM180619  YDH96669500294  020221  39020221000000EU      
040202210707D00000694759EM180619  WBTAL210100294  020221  39020221000000EU      
130202210705D00000694833EM180619  YDHA0000920294  020221  39020221000000EU      
130202210707D00000694847EM180619  WBTAL210100294  020221  39020221000000EU      
130202210705D00000694958EM180619  YDH40776050294  020221  39020221000000EU      
040202210708D00000694960EM180619  YDH40713470294  020221  39020221000000EU      
040202210708D00000695057EM180619  YDH31702940294  020221  39020221000000EU      
040202210707D00000695101EM180619  WBTAL210100294  020221  39020221000000EU      
020202210704D00000695260EM180619  YDHC77_F210294  020221  39020221000000EU      
040202210707D00000695301EM180619  WBTAL210100294  020221  39020221000000EU      
040202210708D00000695304EM180619  WBTAL210100294  020221  39020221000000EU      
040202210707D00000695307EM180619  WBTAL210100294  020221  39020221000000EU      
040202210707D00000695308EM180619  WBTAL210100294  020221  39020221000000EU      
040202210707D00000695309EM180619  WBTAL210100294  020221  39020221000000EU      
020202210704D00000695331EM180619  YDHART25950294  020221  39020221000000EU      
130202210705D00000695375EM180619  YDH28939000294  020221  39020221000000EU      
130202210705D00000695382EM180619  YDHC77_2100294  020221  39020221000000EU      
040202210708D00000695426EM180619  YDHC77_H210294  020221  39020221000000EU      
040202210707D00000695437EM180619  YDHC77_H210294  020221  39020221000000EU      
040202210708D00000695450EM180619  YDHAMTERRY0294  020221  39020221000000EU      
130202210705D00000695462EM180619  YDHC77_H210294  020221  39020221000000EU      
020202210704D00000695524EM180619  YDHC77_2100294  020221  39020221000000EU      
040202210708D00000695565EM180619  YDHC77_F210294  020221  39020221000000EU      
060202210708D00000703157EM180619  WBTAL210100294  020221  39020221000000EU      
190202210704D00000703278EM180619  WBTAL210100294  020221  39020221000000EU      
190202210704D00000703306EM180619  WBTAL210100294  020221  39020221000000EU      
020202210704D00000703345EM180619  YDHA0001920294  020221  39020221000000EU      
190202210704D00000703496EM180619  WBTAL210100294  020221  39020221000000EU      
200202210705D00000703533EM180619  WBTAL210100294  020221  39020221000000EU      
020202210704D00000703558EM180619  YDHSM886420294  020221  39020221000000EU      
020202210708D00000703818EM180619  WBTAL210100294  020221  39020221000000EU      
030202210705D00000703942EM180619  YDH29451130294  020221  39020221000000EU      
010202210705D00000704036EM180619  WBTAL210100294  020221  39020221000000EU      
190202210704D00000704301EM180619  WBTAL210100294  020221  39020221000000EU      
060202210708D00000704609EM180619  WBTAL210100294  020221  39020221000000EU      
020202210704D00000704728EM180619  WBTAL210100294  020221  39020221000000EU      
200202210705D00000705047EM180619  WBTAL210100294  020221  39020221000000EU      
060202210708D00000705270EM180619  WBTAL210100294  020221  39020221000000EU      
190202210704D00000705273EM180619  WBTAL210100294  020221  39020221000000EU      
010202210705D00000705279EM180619  WBTAL210100294  020221  39020221000000EU      
060202210708D00000705283EM180619  WBTAL210100294  020221  39020221000000EU      
190202210704D00000705291EM180619  WBTAL210100294  020221  39020221000000EU      
010202210705D00000705294EM180619  WBTAL210100294  020221  39020221000000EU      
190202210704D00000705367EM180619  WBTAL210100294  020221  39020221000000EU      
190202210704D00000705450EM180619  WBTAL210100294  020221  39020221000000EU      
030202210704D00000705649EM180619  WBTAL210100294  020221  39020221000000EU      
190202210704D00000705849EM180619  WBTAL210100294  020221  39020221000000EU      
200202210704D00000705871EM180619  WBTAL210100294  020221  39020221000000EU      
200202210705D00000706070EM180619  WBTAL210100294  020221  39020221000000EU      
010202210705D00000706072EM180619  WBTAL210100294  020221  39020221000000EU      
190202210704D00000706131EM180619  WBTAL210100294  020221  39020221000000EU      
010202210705D00000706462EM180619  WBTAL210100294  020221  39020221000000EU      
200202210705D00000706468EM180619  WBTAL210100294  020221  39020221000000EU      
200202210705D00000706534EM180619  WBTAL210100294  020221  39020221000000EU      
060202210708D00000706604EM180619  WBTAL210100294  020221  39020221000000EU      
010202210705D00000706643EM180619  WBTAL210100294  020221  39020221000000EU      
200202210708D00000706681EM180619  WBTAL210100294  020221  39020221000000EU      
200202210704D00000706728EM180619  WBTAL210100294  020221  39020221000000EU      
030202210704D00000706764EM180619  WBTAL210100294  020221  39020221000000EU      
060202210708D00000706797EM180619  WBTAL210100294  020221  39020221000000EU      
200202210704D00000706874EM180619  WBTAL210100294  020221  39020221000000EU      
020202210708D00000706915EM180619  WBTAL210100294  020221  39020221000000EU      
060202210708D00000706942EM180619  WBTAL210100294  020221  39020221000000EU      
190202210704D00000706981EM180619  WBTAL210100294  020221  39020221000000EU      
030202210704D00000706999EM180619  WBTAL210100294  020221  39020221000000EU      
190202210704D00000707448EM180619  WBTAL210100294  020221  39020221000000EU      
020202210708D00000708025EM180619  WBTAL210100294  020221  39020221000000EU      
200202210704D00000708086EM180619  WBTAL210100294  020221  39020221000000EU      
030202210704D00000708176EM180619  WBTAL210100294  020221  39020221000000EU      
200202210705D00000708177EM180619  WBTAL210100294  020221  39020221000000EU      
200202210704D00000708271EM180619  WBTAL210100294  020221  39020221000000EU      
030202210704D00000708353EM180619  WBTAL210100294  020221  39020221000000EU      
040202210708D00000711402EM180619  WBTAL210100294  020221  39020221000000EU      
130202210705D00000711453EM180619  WBTAL210100294  020221  39020221000000EU      
060202210708D00000711629EM180619  WBTAL210100294  020221  39020221000000EU      
020202210708D00000711679EM180619  WBTAL210100294  020221  39020221000000EU      
010202210708D00000711680EM180619  WBTAL210100294  020221  39020221000000EU      
010202210704D00000711733EM180619  WBTAL210100294  020221  39020221000000EU      
020202210704D00000711922EM180619  WBTAL210100294  020221  39020221000000EU      
040202210708D00000712097EM180619  WBTAL210100294  020221  39020221000000EU      
060202210708D00000712229EM180619  WBTAL210100294  020221  39020221000000EU      
040202210707D00000712302EM180619  WBTAL210100294  020221  39020221000000EU      
200202210704D00000712305EM180619  WBTAL210100294  020221  39020221000000EU      
040202210707D00000712342EM180619  WBTAL210100294  020221  39020221000000EU      
190202210704D00000712405EM180619  WBTAL210100294  020221  39020221000000EU      
040202210707D00000716367EM180619  WBTAL210100294  020221  39020221000000EU      
030202210704D00000716541EM180619  WBTAL210100294  020221  39020221000000EU      
200202210704D00000716576EM180619  WBTAL210100294  020221  39020221000000EU      
200202210704D00000716623EM180619  WBTAL210100294  020221  39020221000000EU      
060202210708D00000716688EM180619  WBTAL210100294  020221  39020221000000EU      
040202210707D00000716703EM180619  WBTAL210100294  020221  39020221000000EU      
040202210708D00000716752EM180619  WBTAL210100294  020221  39020221000000EU      
200202210708D00000716800EM180619  WBTAL210100294  020221  39020221000000EU      
010202210704D00000716824EM180619  WBTAL210100294  020221  39020221000000EU      
030202210704D00000716834EM180619  WBTAL210100294  020221  39020221000000EU      
130202210707D00000716918EM180619  WBTAL210100294  020221  39020221000000EU      
200202210704D00000716951EM180619  WBTAL210100294  020221  39020221000000EU      
040202210707D00000717054EM180619  WBTAL210100294  020221  39020221000000EU      
040202210707D00000717070EM180619  WBTAL210100294  020221  39020221000000EU      
130202210707D00000717106EM180619  WBTAL210100294  020221  39020221000000EU      
130202210707D00000717119EM180619  WBTAL210100294  020221  39020221000000EU      
060202210708D00000717129EM180619  WBTAL210100294  020221  39020221000000EU      
030202210704D00000717232EM180619  WBTAL210100294  020221  39020221000000EU      
030202210704D00000717337EM180619  WBTAL210100294  020221  39020221000000EU      
040202210707D00000717387EM180619  WBTAL210100294  020221  39020221000000EU      
040202210707D00000717402EM180619  WBTAL210100294  020221  39020221000000EU      
040202210708D00000717424EM180619  WBTAL210100294  020221  39020221000000EU      
040202210708D00000717425EM180619  WBTAL210100294  020221  39020221000000EU      
200202210704D00000719206EM180619  WBTAL210100294  020221  39020221000000EU      
060202210708D00000719241EM180619  WBTAL210100294  020221  39020221000000EU      
200202210704D00000719348EM180619  WBTAL210100294  020221  39020221000000EU      
130202210707D00000719351EM180619  WBTAL210100294  020221  39020221000000EU      
010202210705D00000719377EM180619  WBTAL210100294  020221  39020221000000EU      
040202210707D00000719412EM180619  WBTAL210100294  020221  39020221000000EU      
030202210704D00000719478EM180619  WBTAL210100294  020221  39020221000000EU      
190202210704D00000719483EM180619  WBTAL210100294  020221  39020221000000EU      
200202210704D00000719501EM180619  WBTAL210100294  020221  39020221000000EU      
040202210708D00000719515EM180619  WBTAL210100294  020221  39020221000000EU      
190202210704D00000719523EM180619  WBTAL210100294  020221  39020221000000EU      
040202210707D00000719552EM180619  WBTAL210100294  020221  39020221000000EU      
040202210707D00000719556EM180619  WBTAL210100294  020221  39020221000000EU      
190202210704D00000719565EM180619  WBTAL210100294  020221  39020221000000EU      
030202210704D00000719573EM180619  WBTAL210100294  020221  39020221000000EU      
060202210708D00000719579EM180619  WBTAL210100294  020221  39020221000000EU      
060202210708D00000719660EM180619  WBTAL210100294  020221  39020221000000EU      
190202210704D00000719675EM180619  WBTAL210100294  020221  39020221000000EU      
030202210704D00000719683EM180619  WBTAL210100294  020221  39020221000000EU      
010202210708D00000719686EM180619  WBTAL210100294  020221  39020221000000EU      
190202210704D00000719692EM180619  WBTAL210100294  020221  39020221000000EU      
200202210704D00000719693EM180619  WBTAL210100294  020221  39020221000000EU      
190202210704D00000719703EM180619  WBTAL210100294  020221  39020221000000EU      
010202210705D00000719713EM180619  WBTAL210100294  020221  39020221000000EU      
030202210704D00000719717EM180619  WBTAL210100294  020221  39020221000000EU      
020202210704D00000719733EM180619  WBTAL210100294  020221  39020221000000EU      
020202210704D00000719738EM180619  WBTAL210100294  020221  39020221000000EU      
010202210708D00000719759EM180619  WBTAL210100294  020221  39020221000000EU      
190202210704D00000719763EM180619  WBTAL210100294  020221  39020221000000EU      
190202210704D00000719781EM180619  WBTAL210100294  020221  39020221000000EU      
060202210708D00000719800EM180619  WBTAL210100294  020221  39020221000000EU      
030202210704D00000719820EM180619  WBTAL210100294  020221  39020221000000EU      
030202210704D00000719823EM180619  WBTAL210100294  020221  39020221000000EU      
200202210704D00000719898EM180619  WBTAL210100294  020221  39020221000000EU      
190202210704D00000719902EM180619  WBTAL210100294  020221  39020221000000EU      
060202210708D00000719921EM180619  WBTAL210100294  020221  39020221000000EU      
010202210705D00000719939EM180619  WBTAL210100294  020221  39020221000000EU      
060202210708D00000719960EM180619  WBTAL210100294  020221  39020221000000EU      
060202210708D00000719962EM180619  WBTAL210100294  020221  39020221000000EU      
010202210705D00000720003EM180619  WBTAL210100294  020221  39020221000000EU      
190202210704D00000720005EM180619  WBTAL210100294  020221  39020221000000EU      
190202210704D00000720016EM180619  WBTAL210100294  020221  39020221000000EU      
190202210704D00000720017EM180619  WBTAL210100294  020221  39020221000000EU      
190202210704D00000720895EM180619  WBTAL210100294  020221  39020221000000EU      
190202210704D00000720901EM180619  WBTAL210100294  020221  39020221000000EU      
200202210704D00000720021EM180619  WBTAL210100294  020221  39020221000000EU      
200202210704D00000720024EM180619  WBTAL210100294  020221  39020221000000EU      
200202210708D00000720036EM180619  WBTAL210100294  020221  39020221000000EU      
200202210704D00000720055EM180619  WBTAL210100294  020221  39020221000000EU      
190202210704D00000720119EM180619  WBTAL210100294  020221  39020221000000EU      
200202210704D00000720913EM180619  WBTAL210100294  020221  39020221000000EU      
190202210704D00000720162EM180619  WBTAL210100294  020221  39020221000000EU      
010202210708D00000720974EM180619  WBTAL210100294  020221  39020221000000EU      
030202210704D00000721005EM180619  WBTAL210100294  020221  39020221000000EU      
060202210708D00000720195EM180619  WBTAL210100294  020221  39020221000000EU      
060202210708D00000720242EM180619  WBTAL210100294  020221  39020221000000EU      
190202210704D00000720264EM180619  WBTAL210100294  020221  39020221000000EU      
020202210708D00000720277EM180619  WBTAL210100294  020221  39020221000000EU      
020202210704D00000720285EM180619  WBTAL210100294  020221  39020221000000EU      
060202210708D00000720314EM180619  WBTAL210100294  020221  39020221000000EU      
010202210705D00000720322EM180619  WBTAL210100294  020221  39020221000000EU      
060202210708D00000720379EM180619  WBTAL210100294  020221  39020221000000EU      
190202210704D00000720386EM180619  WBTAL210100294  020221  39020221000000EU      
020202210708D00000720540EM180619  WBTAL210100294  020221  39020221000000EU      
190202210704D00000720671EM180619  WBTAL210100294  020221  39020221000000EU      
190202210704D00000720673EM180619  WBTAL210100294  020221  39020221000000EU      
030202210704D00000720694EM180619  WBTAL210100294  020221  39020221000000EU      
020202210708D00000720709EM180619  WBTAL210100294  020221  39020221000000EU      
060202210708D00000720722EM180619  WBTAL210100294  020221  39020221000000EU      
060202210708D00000720723EM180619  WBTAL210100294  020221  39020221000000EU      
030202210704D00000720732EM180619  WBTAL210100294  020221  39020221000000EU      
200202210704D00000720743EM180619  WBTAL210100294  020221  39020221000000EU      
190202210704D00000720755EM180619  WBTAL210100294  020221  39020221000000EU      
020202210708D00000720758EM180619  WBTAL210100294  020221  39020221000000EU      
060202210708D00000720763EM180619  WBTAL210100294  020221  39020221000000EU      
190202210704D00000720767EM180619  WBTAL210100294  020221  39020221000000EU      
030202210704D00000720776EM180619  WBTAL210100294  020221  39020221000000EU      
200202210704D00000720809EM180619  WBTAL210100294  020221  39020221000000EU      
200202210708D00000720817EM180619  WBTAL210100294  020221  39020221000000EU      
030202210704D00000720820EM180619  WBTAL210100294  020221  39020221000000EU      
200202210704D00000720822EM180619  WBTAL210100294  020221  39020221000000EU      
200202210704D00000720829EM180619  WBTAL210100294  020221  39020221000000EU      
060202210708D00000720851EM180619  WBTAL210100294  020221  39020221000000EU      
200202210704D00000720864EM180619  WBTAL210100294  020221  39020221000000EU      
190202210704D00000720882EM180619  WBTAL210100294  020221  39020221000000EU      
060202210708D00000720883EM180619  WBTAL210100294  020221  39020221000000EU      
200202210704D00000721043EM180619  WBTAL210100294  020221  39020221000000EU      
190202210704D00000721086EM180619  WBTAL210100294  020221  39020221000000EU      
020202210704D00000721094EM180619  WBTAL210100294  020221  39020221000000EU      
200202210704D00000721097EM180619  WBTAL210100294  020221  39020221000000EU      
060202210708D00000721159EM180619  WBTAL210100294  020221  39020221000000EU      
030202210704D00000721173EM180619  WBTAL210100294  020221  39020221000000EU      
060202210708D00000721187EM180619  WBTAL210100294  020221  39020221000000EU      
200202210704D00000721243EM180619  WBTAL210100294  020221  39020221000000EU      
020202210708D00000721717EM180619  WBTAL210100294  020221  39020221000000EU      
190202210704D00000721244EM180619  WBTAL210100294  020221  39020221000000EU      
130202210707D00000721367EM180619  WBTAL210100294  020221  39020221000000EU      
040202210707D00000721369EM180619  WBTAL210100294  020221  39020221000000EU      
190202210704D00000721413EM180619  WBTAL210100294  020221  39020221000000EU      
030202210704D00000721729EM180619  WBTAL210100294  020221  39020221000000EU      
200202210704D00000721414EM180619  WBTAL210100294  020221  39020221000000EU      
010202210705D00000721423EM180619  WBTAL210100294  020221  39020221000000EU      
010202210705D00000721427EM180619  WBTAL210100294  020221  39020221000000EU      
190202210704D00000721435EM180619  WBTAL210100294  020221  39020221000000EU      
200202210704D00000721457EM180619  WBTAL210100294  020221  39020221000000EU      
200202210704D00000721514EM180619  WBTAL210100294  020221  39020221000000EU      
040202210707D00000721528EM180619  WBTAL210100294  020221  39020221000000EU      
030202210704D00000721530EM180619  WBTAL210100294  020221  39020221000000EU      
130202210707D00000721531EM180619  WBTAL210100294  020221  39020221000000EU      
190202210704D00000721539EM180619  WBTAL210100294  020221  39020221000000EU      
030202210704D00000721562EM180619  WBTAL210100294  020221  39020221000000EU      
130202210707D00000721568EM180619  WBTAL210100294  020221  39020221000000EU      
030202210704D00000721593EM180619  WBTAL210100294  020221  39020221000000EU      
130202210707D00000721598EM180619  WBTAL210100294  020221  39020221000000EU      
030202210704D00000721606EM180619  WBTAL210100294  020221  39020221000000EU      
130202210707D00000721613EM180619  WBTAL210100294  020221  39020221000000EU      
040202210707D00000721636EM180619  WBTAL210100294  020221  39020221000000EU      
130202210707D00000721659EM180619  WBTAL210100294  020221  39020221000000EU      
060202210708D00000721687EM180619  WBTAL210100294  020221  39020221000000EU      
030202210704D00000721691EM180619  WBTAL210100294  020221  39020221000000EU      
130202210707D00000721736EM180619  WBTAL210100294  020221  39020221000000EU      
010202210708D00000721745EM180619  WBTAL210100294  020221  39020221000000EU      
060202210708D00000721749EM180619  WBTAL210100294  020221  39020221000000EU      
030202210704D00000721999EM180619  WBTAL210100294  020221  39020221000000EU      
030202210704D00000721756EM180619  WBTAL210100294  020221  39020221000000EU      
130202210707D00000721789EM180619  WBTAL210100294  020221  39020221000000EU      
200202210704D00000721797EM180619  WBTAL210100294  020221  39020221000000EU      
200202210704D00000721816EM180619  WBTAL210100294  020221  39020221000000EU      
030202210704D00000721845EM180619  WBTAL210100294  020221  39020221000000EU      
040202210707D00000721881EM180619  WBTAL210100294  020221  39020221000000EU      
040202210707D00000721885EM180619  WBTAL210100294  020221  39020221000000EU      
190202210704D00000721913EM180619  WBTAL210100294  020221  39020221000000EU      
040202210705D00000721923EM180619  WBTAL210100294  020221  39020221000000EU      
130202210707D00000721938EM180619  WBTAL210100294  020221  39020221000000EU      
130202210707D00000721941EM180619  WBTAL210100294  020221  39020221000000EU      
010202210708D00000721957EM180619  WBTAL210100294  020221  39020221000000EU      
060202210708D00000721965EM180619  WBTAL210100294  020221  39020221000000EU      
040202210708D00000721971EM180619  WBTAL210100294  020221  39020221000000EU      
060202210708D00000721976EM180619  WBTAL210100294  020221  39020221000000EU      
190202210704D00000721982EM180619  WBTAL210100294  020221  39020221000000EU      
200202210704D00000721988EM180619  WBTAL210100294  020221  39020221000000EU      
030202210704D00000721990EM180619  WBTAL210100294  020221  39020221000000EU      
190202210704D00000721995EM180619  WBTAL210100294  020221  39020221000000EU      
020202210704D00000723010EM180619  WBTAL210100294  020221  39020221000000EU      
020202210704D00000723024EM180619  WBTAL210100294  020221  39020221000000EU      
040202210707D00000723409EM180619  WBTAL210100294  020221  39020221000000EU      
130202210707D00000723551EM180619  WBTAL210100294  020221  39020221000000EU      
020202210704D00000723587EM180619  WBTAL210100294  020221  39020221000000EU      
040202210707D00000723604EM180619  WBTAL210100294  020221  39020221000000EU      
130202210705D00000723660EM180619  WBTAL210100294  020221  39020221000000EU      
030202210704D00000723668EM180619  WBTAL210100294  020221  39020221000000EU      
200202210704D00000723687EM180619  WBTAL210100294  020221  39020221000000EU      
030202210704D00000723711EM180619  WBTAL210100294  020221  39020221000000EU      
060202210708D00000723776EM180619  WBTAL210100294  020221  39020221000000EU      
060202210708D00000723820EM180619  WBTAL210100294  020221  39020221000000EU      
130202210707D00000723864EM180619  WBTAL210100294  020221  39020221000000EU      
190202210704D00000723886EM180619  WBTAL210100294  020221  39020221000000EU      
190202210704D00000723902EM180619  WBTAL210100294  020221  39020221000000EU      
040202210707D00000723904EM180619  WBTAL210100294  020221  39020221000000EU      
040202210707D00000723913EM180619  WBTAL210100294  020221  39020221000000EU      
190202210704D00000723914EM180619  WBTAL210100294  020221  39020221000000EU      
030202210704D00000723916EM180619  WBTAL210100294  020221  39020221000000EU      
200202210704D00000724005EM180619  WBTAL210100294  020221  39020221000000EU      
130202210705D00000724027EM180619  WBTAL210100294  020221  39020221000000EU      
130202210707D00000724051EM180619  WBTAL210100294  020221  39020221000000EU      
200202210704D00000724115EM180619  WBTAL210100294  020221  39020221000000EU      
190202210704D00000724116EM180619  WBTAL210100294  020221  39020221000000EU      
030202210704D00000724117EM180619  WBTAL210100294  020221  39020221000000EU      
040202210707D00000724122EM180619  WBTAL210100294  020221  39020221000000EU      
030202210704D00000724159EM180619  WBTAL210100294  020221  39020221000000EU      
040202210707D00000724257EM180619  WBTAL210100294  020221  39020221000000EU      
200202210704D00000724262EM180619  WBTAL210100294  020221  39020221000000EU      
130202210707D00000724264EM180619  WBTAL210100294  020221  39020221000000EU      
030202210704D00000724276EM180619  WBTAL210100294  020221  39020221000000EU      
200202210708D00000724289EM180619  WBTAL210100294  020221  39020221000000EU      
130202210707D00000724302EM180619  WBTAL210100294  020221  39020221000000EU      
130202210707D00000724798EM180619  WBTAL210100294  020221  39020221000000EU      
020202210708D00000724304EM180619  WBTAL210100294  020221  39020221000000EU      
030202210704D00000724381EM180619  WBTAL210100294  020221  39020221000000EU      
130202210707D00000724817EM180619  WBTAL210100294  020221  39020221000000EU      
190202210704D00000724429EM180619  WBTAL210100294  020221  39020221000000EU      
200202210704D00000724444EM180619  WBTAL210100294  020221  39020221000000EU      
200202210708D00000724481EM180619  WBTAL210100294  020221  39020221000000EU      
010202210708D00000724483EM180619  WBTAL210100294  020221  39020221000000EU      
040202210707D00000724508EM180619  WBTAL210100294  020221  39020221000000EU      
040202210708D00000724530EM180619  WBTAL210100294  020221  39020221000000EU      
010202210705D00000724535EM180619  WBTAL210100294  020221  39020221000000EU      
010202210708D00000724540EM180619  WBTAL210100294  020221  39020221000000EU      
010202210705D00000724625EM180619  WBTAL210100294  020221  39020221000000EU      
190202210704D00000724626EM180619  WBTAL210100294  020221  39020221000000EU      
060202210708D00000724675EM180619  WBTAL210100294  020221  39020221000000EU      
060202210708D00000724686EM180619  WBTAL210100294  020221  39020221000000EU      
190202210704D00000724688EM180619  WBTAL210100294  020221  39020221000000EU      
200202210704D00000724690EM180619  WBTAL210100294  020221  39020221000000EU      
190202210704D00000728060EM180619  WBTAL210100294  020221  39020221000000EU      
190202210704D00000728073EM180619  WBTAL210100294  020221  39020221000000EU      
190202210704D00000728091EM180619  WBTAL210100294  020221  39020221000000EU      
190202210704D00000728101EM180619  WBTAL210100294  020221  39020221000000EU      
060202210708D00000728118EM180619  WBTAL210100294  020221  39020221000000EU      
060202210708D00000728130EM180619  WBTAL210100294  020221  39020221000000EU      
020202210708D00000728152EM180619  WBTAL210100294  020221  39020221000000EU      
190202210704D00000728172EM180619  WBTAL210100294  020221  39020221000000EU      
190202210704D00000728190EM180619  WBTAL210100294  020221  39020221000000EU      
060202210708D00000728268EM180619  WBTAL210100294  020221  39020221000000EU      
200202210704D00000728292EM180619  WBTAL210100294  020221  39020221000000EU      
020202210708D00000728302EM180619  WBTAL210100294  020221  39020221000000EU      
060202210708D00000728324EM180619  WBTAL210100294  020221  39020221000000EU      
200202210704D00000728512EM180619  WBTAL210100294  020221  39020221000000EU      
060202210708D00000728521EM180619  WBTAL210100294  020221  39020221000000EU      
030202210704D00000728573EM180619  WBTAL210100294  020221  39020221000000EU      
020202210704D00000728582EM180619  WBTAL210100294  020221  39020221000000EU      
060202210708D00000728648EM180619  WBTAL210100294  020221  39020221000000EU      
020202210708D00000728719EM180619  WBTAL210100294  020221  39020221000000EU      
190202210704D00000728765EM180619  WBTAL210100294  020221  39020221000000EU      
190202210704D00000728793EM180619  WBTAL210100294  020221  39020221000000EU      
190202210704D00000728885EM180619  WBTAL210100294  020221  39020221000000EU      
030202210704D00000729212EM180619  WBTAL210100294  020221  39020221000000EU      
060202210708D00000729533EM180619  WBTAL210100294  020221  39020221000000EU      
200202210704D00000729649EM180619  WBTAL210100294  020221  39020221000000EU      
020202210704D00000729685EM180619  WBTAL210100294  020221  39020221000000EU      
020202210704D00000681993EM180619  YDHAM210110294  020221  39020221000000EU      
020202210704D00000682042EM180619  YDH40355480294  020221  39020221000000EU      
130202210705D00000682060EM180619  YDH035109P0294  020221  39020221000000EU      
020202210704D00000682064EM180619  YDHFP62D7W0294  020221  39020221000000EU      
200202210704D00000682084EM180619  YDHAM210110294  020221  39020221000000EU      
190202210704D00000682093EM180619  YDH035109P0294  020221  39020221000000EU      
200202210704D00000682157EM180619  YDHFP62DUN0294  020221  39020221000000EU      
040202210708D00000682227EM180619  YDH041859P0294  020221  39020221000000EU      
130202210705D00000682228EM180619  YDH041859P0294  020221  39020221000000EU      
130202210705D00000682304EM180619  YDHXMDK2B00294  020221  39020221000000EU      
020202210704D00000682335EM180619  YDH96417660294  020221  39020221000000EU      
020202210704D00000682626EM180619  YDH31641170294  020221  39020221000000EU      
040202210707D00000682663EM180619  YDHXM8NRH10294  020221  39020221000000EU      
040202210708D00000682686EM180619  YDH30084130294  020221  39020221000000EU      
040202210707D00000686671EM180619  WBTAL210100294  020221  39020221000000EU      
020202210704D00000682737EM180619  YDHXMKU5400294  020221  39020221000000EU      
020202210704D00000682738EM180619  YDHXMKU5400294  020221  39020221000000EU      
130202210705D00000686687EM180619  YDHC77_F210294  020221  39020221000000EU      
020202210704D00000682740EM180619  YDHXMKU5400294  020221  39020221000000EU      
020202210704D00000682747EM180619  YDHXMKU5400294  020221  39020221000000EU      
040202210708D00000682835EM180619  YDHXMAJZT00294  020221  39020221000000EU      
190202210704D00000682846EM180619  YDH40869950294  020221  39020221000000EU      
020202210704D00000683191EM180619  YDHART25350294  020221  39020221000000EU      
190202210704D00000683356EM180619  YDHFP62EC10294  020221  39020221000000EU      
040202210707D00000683379EM180619  YDHC3048020294  020221  39020221000000EU      
130202210705D00000683391EM180619  YDH81237790294  020221  39020221000000EU      
190202210704D00000683536EM180619  WBTAL210100294  020221  39020221000000EU      
040202210707D00000683737EM180619  YDHC77_2100294  020221  39020221000000EU      
030202210705D00000683761EM180619  YDH29750170294  020221  39020221000000EU      
130202210704D00000684099EM180619  YDHFP62F850294  020221  39020221000000EU      
200202210704D00000684117EM180619  YDHFP62FIU0294  020221  39020221000000EU      
130202210704D00000684185EM180619  YDH40288670294  020221  39020221000000EU      
130202210705D00000684231EM180619  YDHC77_G210294  020221  39020221000000EU      
020202210704D00000684303EM180619  YDH404-7530294  020221  39020221000000EU      
020202210704D00000684513EM180619  YDH407-2660294  020221  39020221000000EU      
020202210704D00000684868EM180619  YDH405-1690294  020221  39020221000000EU      
040202210708D00000685182EM180619  YDHFP62H8E0294  020221  39020221000000EU      
020202210704D00000685254EM180619  YDH041859P0294  020221  39020221000000EU      
200202210704D00000685307EM180619  YDH041859P0294  020221  39020221000000EU      
020202210704D00000685323EM180619  YDH40731390294  020221  39020221000000EU      
130202210705D00000685593EM180619  YDHXMP87H00294  020221  39020221000000EU      
040202210708D00000685788EM180619  YDHXM8NRH10294  020221  39020221000000EU      
040202210708D00000685854EM180619  YDH035109P0294  020221  39020221000000EU      
020202210704D00000685856EM180619  YDH035109P0294  020221  39020221000000EU      
020202210704D00000686072EM180619  YDHXMAZW700294  020221  39020221000000EU      
040202210708D00000686108EM180619  YDH89210120294  020221  39020221000000EU      
030202210704D00000686254EM180619  WBTAL210100294  020221  39020221000000EU      
130202210704D00000686370EM180619  YDH27351170294  020221  39020221000000EU      
020202210705D00000686440EM180619  YDH81222430294  020221  39020221000000EU      
020202210704D00000686510EM180619  YDHHM402-50294  020221  39020221000000EU      
020202210704D00000686531EM180619  YDHSO210110294  020221  39020221000000EU      
040202210707D00000686640EM180619  WBTAL210100294  020221  39020221000000EU      
060202210708D00000686660EM180619  WBTAL210100294  020221  39020221000000EU      
040202210707D00000687353EM180619  YDHC77_H210294  020221  39020221000000EU      
020202210704D00000687573EM180619  YDHJBFST910294  020221  39020221000000EU      
040202210707D00000687880EM180619  WBTAL210100294  020221  39020221000000EU      
130202210705D00000688015EM180619  YDH40345460294  020221  39020221000000EU      
130202210704D00000688017EM180619  YDHXMNRX600294  020221  39020221000000EU      
130202210704D00000688019EM180619  YDHXMNRX600294  020221  39020221000000EU      
060202210708D00000688103EM180619  WBTAL210100294  020221  39020221000000EU      
130202210705D00000688221EM180619  YDH035109P0294  020221  39020221000000EU      
020202210704D00000688233EM180619  YDHFP62KWZ0294  020221  39020221000000EU      
040202210707D00000688586EM180619  WBTAL210100294  020221  39020221000000EU      
020202210704D00000688848EM180619  YDH171-9650294  020221  39020221000000EU      
020202210704D00000689010EM180619  YDHSM9D75C0294  020221  39020221000000EU      
060202210708D00000689096EM180619  WBTAL210100294  020221  39020221000000EU      
030202210704D00000689123EM180619  WBTAL210100294  020221  39020221000000EU      
040202210708D00000689191EM180619  YDH404-6120294  020221  39020221000000EU      
040202210708D00000689221EM180619  YDHLH420590294  020221  39020221000000EU      
010202210705D00000689608EM180619  WBTAL210100294  020221  39020221000000EU      
020202210704D00000689783EM180619  YDH19143850294  020221  39020221000000EU      
130202210705D00000689836EM180619  YDH96571900294  020221  39020221000000EU      
190202210704D00000689857EM180619  YDH95941750294  020221  39020221000000EU      
020202210704D00000690421EM180619  YDH402-1890294  020221  39020221000000EU      
040202210707D00000690664EM180619  YDHFP62NU90294  020221  39020221000000EU      
040202210707D00000690699EM180619  YDHC77_H210294  020221  39020221000000EU      
040202210708D00000690995EM180619  YDHC77_F210294  020221  39020221000000EU      
020202210704D00000691122EM180619  YDHXMDK2B00294  020221  39020221000000EU      
130202210704D00000691123EM180619  YDHXMDK2B00294  020221  39020221000000EU      
040202210708D00000691133EM180619  YDHXMDK2B00294  020221  39020221000000EU      
130202210705D00000691155EM180619  YDH30376630294  020221  39020221000000EU      
060202210708D00000691224EM180619  WBTAL210100294  020221  39020221000000EU      
130202210705D00000691448EM180619  YDH041859P0294  020221  39020221000000EU      
040202210707D00000691467EM180619  WBTAL210100294  020221  39020221000000EU      
020202210704D00000691572EM180619  YDHC77_H210294  020221  39020221000000EU      
030202210705D00000691592EM180619  YDHXMREY200294  020221  39020221000000EU      
130202210705D00000691622EM180619  YDHXMMJA700294  020221  39020221000000EU      
040202210708D00000691630EM180619  YDHXMF46K00294  020221  39020221000000EU      
030202210704D00000691655EM180619  WBTAL210100294  020221  39020221000000EU      
130202210705D00000691689EM180619  YDH403-9480294  020221  39020221000000EU      
040202210707D00000691725EM180619  WBTAL210100294  020221  39020221000000EU      
030202210704D00000691965EM180619  WBTAL210100294  020221  39020221000000EU      
040202210707D00000692025EM180619  YDHXMLUBH00294  020221  39020221000000EU      
020202210704D00000695680EM180619  YDH17115580294  020221  39020221000000EU      
020202210704D00000695631EM180619  YDHC77_G210294  020221  39020221000000EU      
030202210704D00000695744EM180619  WBTAL210100294  020221  39020221000000EU      
020202210704D00000695810EM180619  YDHC77_H210294  020221  39020221000000EU      
020202210704D00000696020EM180619  YDHC77_G210294  020221  39020221000000EU      
020202210704D00000696071EM180619  YDHRY228210294  020221  39020221000000EU      
020202210704D00000696324EM180619  YDHXMDK2B00294  020221  39020221000000EU      
200202210704D00000696533EM180619  WBTAL210100294  020221  39020221000000EU      
020202210704D00000696535EM180619  YDH600300C0294  020221  39020221000000EU      
020202210704D00000696566EM180619  YDH40385430294  020221  39020221000000EU      
200202210704D00000696683EM180619  YDH96964110294  020221  39020221000000EU      
200202210704D00000696867EM180619  YDHLH432060294  020221  39020221000000EU      
020202210704D00000697039EM180619  YDHC77_2100294  020221  39020221000000EU      
020202210705D00000697228EM180619  YDHA0000620294  020221  39020221000000EU      
020202210704D00000697358EM180619  YDHC77_2100294  020221  39020221000000EU      
190202210704D00000697495EM180619  YDHC77_H210294  020221  39020221000000EU      
020202210704D00000697512EM180619  YDHA0005120294  020221  39020221000000EU      
200202210704D00000697705EM180619  YDHC77_F210294  020221  39020221000000EU      
020202210704D00000697706EM180619  YDHC77_F210294  020221  39020221000000EU      
200202210704D00000697720EM180619  YDHC77_2100294  020221  39020221000000EU      
020202210704D00000697725EM180619  YDHC77_H210294  020221  39020221000000EU      
130202210705D00000697774EM180619  YDHC77_2100294  020221  39020221000000EU      
040202210708D00000697791EM180619  YDHC77_F210294  020221  39020221000000EU      
020202210704D00000697797EM180619  YDH40273000294  020221  39020221000000EU      
190202210704D00000697836EM180619  YDHC77_H210294  020221  39020221000000EU      
130202210707D00000697843EM180619  WBTAL210100294  020221  39020221000000EU      
200202210704D00000697885EM180619  YDHC77_H210294  020221  39020221000000EU      
040202210708D00000697899EM180619  YDHC77_2100294  020221  39020221000000EU      
040202210707D00000697917EM180619  YDHA0005120294  020221  39020221000000EU      
130202210705D00000697966EM180619  YDHA0005120294  020221  39020221000000EU      
040202210707D00000697982EM180619  WBTAL210100294  020221  39020221000000EU      
040202210708D00000698002EM180619  YDHC77_2100294  020221  39020221000000EU      
020202210704D00000698226EM180619  YDHAMTERRY0294  020221  39020221000000EU      
040202210707D00000698227EM180619  YDHAMTERRY0294  020221  39020221000000EU      
040202210708D00000698228EM180619  YDHAMTERRY0294  020221  39020221000000EU      
040202210708D00000698232EM180619  YDHAMTERRY0294  020221  39020221000000EU      
020202210704D00000698240EM180619  YDHAMTERRY0294  020221  39020221000000EU      
020202210705D00000698374EM180619  YDH001586P0294  020221  39020221000000EU      
130202210707D00000698424EM180619  WBTAL210100294  020221  39020221000000EU      
200202210704D00000698576EM180619  YDHB2C20210294  020221  39020221000000EU      
190202210704D00000698623EM180619  YDHXMDK2B00294  020221  39020221000000EU      
130202210705D00000698656EM180619  YDHXMDK2B00294  020221  39020221000000EU      
020202210704D00000698657EM180619  YDHXMDK2B00294  020221  39020221000000EU      
040202210708D00000698666EM180619  YDHXMDK2B00294  020221  39020221000000EU      
020202210704D00000698679EM180619  YDHXM3UGA20294  020221  39020221000000EU      
190202210704D00000698708EM180619  YDHB2C20210294  020221  39020221000000EU      
200202210704D00000698749EM180619  YDHXM3UGA20294  020221  39020221000000EU      
020202210705D00000698754EM180619  YDH001586P0294  020221  39020221000000EU      
040202210708D00000698762EM180619  YDH041859P0294  020221  39020221000000EU      
020202210708D00000708414EM180619  WBTAL210100294  020221  39020221000000EU      
060202210708D00000708594EM180619  WBTAL210100294  020221  39020221000000EU      
200202210705D00000708669EM180619  WBTAL210100294  020221  39020221000000EU      
060202210708D00000708672EM180619  WBTAL210100294  020221  39020221000000EU      
190202210704D00000708834EM180619  WBTAL210100294  020221  39020221000000EU      
200202210705D00000709047EM180619  WBTAL210100294  020221  39020221000000EU      
190202210704D00000709257EM180619  WBTAL210100294  020221  39020221000000EU      
010202210705D00000709327EM180619  WBTAL210100294  020221  39020221000000EU      
130202210707D00000709474EM180619  WBTAL210100294  020221  39020221000000EU      
040202210708D00000709652EM180619  WBTAL210100294  020221  39020221000000EU      
130202210707D00000709690EM180619  WBTAL210100294  020221  39020221000000EU      
060202210708D00000709792EM180619  WBTAL210100294  020221  39020221000000EU      
200202210705D00000709828EM180619  WBTAL210100294  020221  39020221000000EU      
130202210707D00000709840EM180619  WBTAL210100294  020221  39020221000000EU      
040202210707D00000709964EM180619  WBTAL210100294  020221  39020221000000EU      
010202210704D00000711379EM180619  WBTAL210100294  020221  39020221000000EU      
040202210708D00000710036EM180619  WBTAL210100294  020221  39020221000000EU      
040202210707D00000710058EM180619  WBTAL210100294  020221  39020221000000EU      
130202210707D00000710188EM180619  WBTAL210100294  020221  39020221000000EU      
040202210707D00000710276EM180619  WBTAL210100294  020221  39020221000000EU      
040202210707D00000710277EM180619  WBTAL210100294  020221  39020221000000EU      
040202210707D00000710464EM180619  WBTAL210100294  020221  39020221000000EU      
130202210707D00000710467EM180619  WBTAL210100294  020221  39020221000000EU      
060202210708D00000710473EM180619  WBTAL210100294  020221  39020221000000EU      
040202210707D00000710486EM180619  WBTAL210100294  020221  39020221000000EU      
060202210708D00000710488EM180619  WBTAL210100294  020221  39020221000000EU      
030202210704D00000710494EM180619  WBTAL210100294  020221  39020221000000EU      
060202210708D00000710503EM180619  WBTAL210100294  020221  39020221000000EU      
130202210707D00000710512EM180619  WBTAL210100294  020221  39020221000000EU      
060202210708D00000710516EM180619  WBTAL210100294  020221  39020221000000EU      
130202210707D00000710518EM180619  WBTAL210100294  020221  39020221000000EU      
130202210707D00000710521EM180619  WBTAL210100294  020221  39020221000000EU      
010202210708D00000710527EM180619  WBTAL210100294  020221  39020221000000EU      
130202210707D00000710587EM180619  WBTAL210100294  020221  39020221000000EU      
040202210708D00000710696EM180619  WBTAL210100294  020221  39020221000000EU      
200202210704D00000710718EM180619  WBTAL210100294  020221  39020221000000EU      
190202210704D00000710737EM180619  WBTAL210100294  020221  39020221000000EU      
040202210708D00000710889EM180619  WBTAL210100294  020221  39020221000000EU      
040202210708D00000710892EM180619  WBTAL210100294  020221  39020221000000EU      
040202210708D00000710895EM180619  WBTAL210100294  020221  39020221000000EU      
060202210708D00000710904EM180619  WBTAL210100294  020221  39020221000000EU      
040202210707D00000710961EM180619  WBTAL210100294  020221  39020221000000EU      
200202210704D00000710962EM180619  WBTAL210100294  020221  39020221000000EU      
060202210708D00000710970EM180619  WBTAL210100294  020221  39020221000000EU      
040202210707D00000710985EM180619  WBTAL210100294  020221  39020221000000EU      
040202210707D00000710993EM180619  WBTAL210100294  020221  39020221000000EU      
030202210704D00000711001EM180619  WBTAL210100294  020221  39020221000000EU      
040202210708D00000711189EM180619  WBTAL210100294  020221  39020221000000EU      
060202210708D00000711309EM180619  WBTAL210100294  020221  39020221000000EU      
040202210707D00000711356EM180619  WBTAL210100294  020221  39020221000000EU      
040202210707D00000711370EM180619  WBTAL210100294  020221  39020221000000EU      
190202210704D00000712712EM180619  WBTAL210100294  020221  39020221000000EU      
030202210704D00000712720EM180619  WBTAL210100294  020221  39020221000000EU      
040202210707D00000712725EM180619  WBTAL210100294  020221  39020221000000EU      
010202210705D00000712734EM180619  WBTAL210100294  020221  39020221000000EU      
030202210704D00000712735EM180619  WBTAL210100294  020221  39020221000000EU      
060202210708D00000712742EM180619  WBTAL210100294  020221  39020221000000EU      
030202210704D00000712771EM180619  WBTAL210100294  020221  39020221000000EU      
060202210708D00000712806EM180619  WBTAL210100294  020221  39020221000000EU      
200202210704D00000712811EM180619  WBTAL210100294  020221  39020221000000EU      
030202210704D00000712982EM180619  WBTAL210100294  020221  39020221000000EU      
030202210704D00000713161EM180619  WBTAL210100294  020221  39020221000000EU      
010202210705D00000713311EM180619  WBTAL210100294  020221  39020221000000EU      
200202210704D00000713323EM180619  WBTAL210100294  020221  39020221000000EU      
010202210708D00000713325EM180619  WBTAL210100294  020221  39020221000000EU      
190202210704D00000713327EM180619  WBTAL210100294  020221  39020221000000EU      
020202210708D00000713331EM180619  WBTAL210100294  020221  39020221000000EU      
010202210705D00000713333EM180619  WBTAL210100294  020221  39020221000000EU      
020202210708D00000713527EM180619  WBTAL210100294  020221  39020221000000EU      
030202210704D00000713599EM180619  WBTAL210100294  020221  39020221000000EU      
200202210705D00000713617EM180619  WBTAL210100294  020221  39020221000000EU      
040202210707D00000716332EM180619  WBTAL210100294  020221  39020221000000EU      
190202210704D00000713623EM180619  WBTAL210100294  020221  39020221000000EU      
200202210704D00000713626EM180619  WBTAL210100294  020221  39020221000000EU      
060202210708D00000713855EM180619  WBTAL210100294  020221  39020221000000EU      
060202210708D00000714120EM180619  WBTAL210100294  020221  39020221000000EU      
060202210708D00000714390EM180619  WBTAL210100294  020221  39020221000000EU      
200202210704D00000714560EM180619  WBTAL210100294  020221  39020221000000EU      
010202210708D00000714588EM180619  WBTAL210100294  020221  39020221000000EU      
060202210708D00000714595EM180619  WBTAL210100294  020221  39020221000000EU      
030202210704D00000714611EM180619  WBTAL210100294  020221  39020221000000EU      
060202210708D00000714643EM180619  WBTAL210100294  020221  39020221000000EU      
200202210704D00000714820EM180619  WBTAL210100294  020221  39020221000000EU      
190202210704D00000714843EM180619  WBTAL210100294  020221  39020221000000EU      
190202210704D00000714882EM180619  WBTAL210100294  020221  39020221000000EU      
060202210708D00000715040EM180619  WBTAL210100294  020221  39020221000000EU      
030202210704D00000715072EM180619  WBTAL210100294  020221  39020221000000EU      
200202210704D00000715389EM180619  WBTAL210100294  020221  39020221000000EU      
060202210708D00000715461EM180619  WBTAL210100294  020221  39020221000000EU      
200202210704D00000715636EM180619  WBTAL210100294  020221  39020221000000EU      
200202210704D00000715678EM180619  WBTAL210100294  020221  39020221000000EU      
200202210704D00000715696EM180619  WBTAL210100294  020221  39020221000000EU      
060202210708D00000715800EM180619  WBTAL210100294  020221  39020221000000EU      
060202210708D00000715860EM180619  WBTAL210100294  020221  39020221000000EU      
020202210704D00000715971EM180619  WBTAL210100294  020221  39020221000000EU      
060202210708D00000716031EM180619  WBTAL210100294  020221  39020221000000EU      
060202210708D00000716336EM180619  WBTAL210100294  020221  39020221000000EU      
010202210708D00000716213EM180619  WBTAL210100294  020221  39020221000000EU      
020202210708D00000716261EM180619  WBTAL210100294  020221  39020221000000EU      
030202210704D00000716263EM180619  WBTAL210100294  020221  39020221000000EU      
040202210707D00000717490EM180619  WBTAL210100294  020221  39020221000000EU      
060202210708D00000717524EM180619  WBTAL210100294  020221  39020221000000EU      
130202210707D00000717528EM180619  WBTAL210100294  020221  39020221000000EU      
040202210708D00000717538EM180619  WBTAL210100294  020221  39020221000000EU      
060202210708D00000717595EM180619  WBTAL210100294  020221  39020221000000EU      
040202210707D00000717612EM180619  WBTAL210100294  020221  39020221000000EU      
040202210707D00000717617EM180619  WBTAL210100294  020221  39020221000000EU      
190202210704D00000717620EM180619  WBTAL210100294  020221  39020221000000EU      
200202210704D00000717630EM180619  WBTAL210100294  020221  39020221000000EU      
060202210708D00000717632EM180619  WBTAL210100294  020221  39020221000000EU      
200202210704D00000717637EM180619  WBTAL210100294  020221  39020221000000EU      
130202210707D00000717691EM180619  WBTAL210100294  020221  39020221000000EU      
130202210707D00000717697EM180619  WBTAL210100294  020221  39020221000000EU      
030202210704D00000717845EM180619  WBTAL210100294  020221  39020221000000EU      
060202210708D00000717903EM180619  WBTAL210100294  020221  39020221000000EU      
060202210708D00000717904EM180619  WBTAL210100294  020221  39020221000000EU      
060202210708D00000717938EM180619  WBTAL210100294  020221  39020221000000EU      
060202210708D00000717964EM180619  WBTAL210100294  020221  39020221000000EU      
190202210704D00000717977EM180619  WBTAL210100294  020221  39020221000000EU      
020202210708D00000717979EM180619  WBTAL210100294  020221  39020221000000EU      
130202210707D00000717980EM180619  WBTAL210100294  020221  39020221000000EU      
020202210708D00000717982EM180619  WBTAL210100294  020221  39020221000000EU      
200202210704D00000717993EM180619  WBTAL210100294  020221  39020221000000EU      
190202210704D00000718018EM180619  WBTAL210100294  020221  39020221000000EU      
040202210708D00000718061EM180619  WBTAL210100294  020221  39020221000000EU      
130202210705D00000718067EM180619  WBTAL210100294  020221  39020221000000EU      
040202210708D00000718080EM180619  WBTAL210100294  020221  39020221000000EU      
130202210707D00000718094EM180619  WBTAL210100294  020221  39020221000000EU      
040202210707D00000718098EM180619  WBTAL210100294  020221  39020221000000EU      
200202210708D00000718142EM180619  WBTAL210100294  020221  39020221000000EU      
030202210704D00000718160EM180619  WBTAL210100294  020221  39020221000000EU      
190202210704D00000718167EM180619  WBTAL210100294  020221  39020221000000EU      
130202210707D00000718172EM180619  WBTAL210100294  020221  39020221000000EU      
190202210704D00000718202EM180619  WBTAL210100294  020221  39020221000000EU      
130202210707D00000718320EM180619  WBTAL210100294  020221  39020221000000EU      
200202210704D00000718405EM180619  WBTAL210100294  020221  39020221000000EU      
060202210708D00000718409EM180619  WBTAL210100294  020221  39020221000000EU      
060202210708D00000718410EM180619  WBTAL210100294  020221  39020221000000EU      
030202210704D00000718415EM180619  WBTAL210100294  020221  39020221000000EU      
040202210707D00000718527EM180619  WBTAL210100294  020221  39020221000000EU      
030202210704D00000718528EM180619  WBTAL210100294  020221  39020221000000EU      
060202210708D00000718553EM180619  WBTAL210100294  020221  39020221000000EU      
040202210708D00000718556EM180619  WBTAL210100294  020221  39020221000000EU      
010202210705D00000718558EM180619  WBTAL210100294  020221  39020221000000EU      
040202210708D00000718691EM180619  WBTAL210100294  020221  39020221000000EU      
020202210708D00000718725EM180619  WBTAL210100294  020221  39020221000000EU      
190202210704D00000718766EM180619  WBTAL210100294  020221  39020221000000EU      
190202210704D00000718768EM180619  WBTAL210100294  020221  39020221000000EU      
060202210708D00000718788EM180619  WBTAL210100294  020221  39020221000000EU      
010202210704D00000718833EM180619  WBTAL210100294  020221  39020221000000EU      
190202210704D00000718861EM180619  WBTAL210100294  020221  39020221000000EU      
020202210704D00000718919EM180619  WBTAL210100294  020221  39020221000000EU      
200202210704D00000719068EM180619  WBTAL210100294  020221  39020221000000EU      
130202210707D00000722001EM180619  WBTAL210100294  020221  39020221000000EU      
060202210708D00000722018EM180619  WBTAL210100294  020221  39020221000000EU      
200202210704D00000722906EM180619  WBTAL210100294  020221  39020221000000EU      
010202210708D00000722023EM180619  WBTAL210100294  020221  39020221000000EU      
130202210707D00000722026EM180619  WBTAL210100294  020221  39020221000000EU      
200202210704D00000722028EM180619  WBTAL210100294  020221  39020221000000EU      
030202210704D00000722043EM180619  WBTAL210100294  020221  39020221000000EU      
