DEBUT5P02022108001059REMDP                                                      
1802022106525P0002325025EM190619  SZJMS134900292  020221  18020221000000EU      
0702022107105P0002324479EM190619  SZJMS134830294  020221  39020221000000EU      
1002022107065P0002326126EM190619  SZJMS134960292  020221  10020221000000EU      
0702022107095P0002326214EM190619  SZJMS134970294  020221  39020221000000EU      
1002022107085P0002326126EM190619  SZJMS134960292  020221  10020221000000EU      
0802022107335P0002307782EM190619  SZJMS133550295  020221  11020221000000EU      
0802022107335P0002307784EM190619  SZJMS133550295  020221  11020221000000EU      
1002022107335P0002326175EM190619  SZJMS134970292  020221  10020221000000EU      
2102022107495P0002321534EM190619  SZJMS134510292  020221  21020221000000EU      
1502022107515P0002326176EM190619  SZJMS134970292  020221  15020221000000EU      
FIN  00012                                                                      
